S00C00004C6162352E73726563D4
S11300000C94B5000C94D2000C9413090C94D200F7
S11300100C94D2000C94D2000C94D2000C94D20014
S11300200C94D2000C94D2000C94D2000C94D20004
S11300300C94D2000C94D2000C94D2000C94D200F4
S11300400C94EA080C94D2000C94D2000C94D200C4
S11300500C94D2000C94D2000C94D2000C94D200D4
S11300600C94D2000C94D2006E616E00696E66002E
S113007000407A10F35A00A0724E18090010A5D45B
S1130080E80000E87648170000E40B54020000CAB8
S11300909A3B000000E1F5050000809698000000FE
S11300A040420F000000A08601000000102700005D
S11300B00000E803000000006400000000000A00E3
S11300C0000000000100000000002C76D888DC67E6
S11300D04F0823DFC1DFAE59E1B1B796E5E3E4533E
S11300E0C63AE651997696E8E6C28426EB898C9B5B
S11300F062ED407C6FFCEFBC9C9F40F2BAA56FA5FB
S1130100F490055A2AF75C936B6CF9676DC11BFC7C
S1130110E0E40D47FEF520E6B500D0ED902E030097
S1130120943577050080841E080000204E0A0000E4
S113013000C80C333333330F986E12831141EF8DA3
S11301402114893BE65516CFFEE6DB18D1844B38E3
S11301501BF77C1D901DA4BBE424203284725E2214
S11301608100C9F124ECA1E53D2711241FBECFEF86
S1130170D8E0DEBFCDBF11E0A0E0B1E0EEEAF9E2E5
S113018002C005900D92A834B107D9F721E0A8E484
S1130190B1E001C01D92A235B207E1F70E945E09E9
S11301A00C94D5140C940000CF93DF93CDB7DEB735
S11301B0A4970FB6F894DEBF0FBECDBF8BA36CA37C
S11301C085E290E025E230E0F90120812F7EFC01F8
S11301D020838CA1882351F085E290E025E230E071
S11301E0F90120812062FC01208309C085E290E0AE
S11301F025E230E0F90120812F7DFC01208388E293
S113020090E028E230E0F9012081322F307F2BA1E9
S1130210232BFC012083198285E290E025E230E063
S1130220F90120812860FC01208380E090E0A0E0B7
S1130230BFE38A839B83AC83BD832BEA3AEA4AEA11
S113024050E46A817B818C819D810E94F40EDC01E3
S1130250CB018E839F83A887B98720E030E040E8F4
S113026050E46A817B818C819D810E94F40EDC01C3
S1130270CB018A879B87AC87BD8720E030E040E8CC
S11302805FE36E817F81888599850E94970D88231D
S11302901CF481E08E87B2C020E03FEF4FE757E4C3
S11302A06A857B858C859D850E94EF0E18160CF05F
S11302B07BC020E030E04AE754E46A817B818C8192
S11302C09D810E949C0DDC01CB018F87988BA98BAB
S11302D0BA8B20E030E04AE755E46F857889898954
S11302E09A890E94F40EDC01CB018B8B9C8BAD8B25
S11302F0BE8B20E030E040E85FE36B897C898D8928
S11303009E890E94970D88232CF481E090E0988FB9
S11303108F8B3FC020E03FEF4FE757E46B897C8928
S11303208D899E890E94EF0E18164CF520E030E06E
S113033040E251E46F85788989899A890E94F40E94
S1130340DC01CB01BC01CD010E940E0EDC01CB010E
S1130350988F8F8B0FC080E991E09A8F898F898D58
S11303609A8D0197F1F79A8F898F8F89988D0197CC
S1130370988F8F8B8F89988D892B69F73FC06B89F4
S11303807C898D899E890E940E0EDC01CB01988F99
S11303908F8B8F89988D9C8F8B8F8B8D9C8D0197E4
S11303A0F1F79C8F8B8F2AC020E030E04FE753E4B5
S11303B06E817F81888599850E94EF0E1816ACF4B2
S11303C06A857B858C859D850E940E0EDC01CB01A0
S11303D09E8F8D8F8D8D9E8D98A38F8F8F8D98A1DD
S11303E00197F1F798A38F8F0FC06E817F81888565
S11303F099850E940E0EDC01CB018E878E8589A320
S113040089A18A95F1F789A38981882339F086E245
S113041090E0FC0180818F708AA301C01AA285E25A
S113042090E025E230E0F9012081277FFC01208360
S11304300000A4960FB6F894DEBF0FBECDBFDF91C7
S1130440CF910895CF93DF9300D0CDB7DEB78983E2
S11304506A83898182958F706A810E94D400898120
S11304608F706A810E94D40000000F900F90DF917A
S1130470CF910895CF93DF93CDB7DEB7A4970FB68E
S1130480F894DEBF0FBECDBF8CA385E290E025E2D9
S113049030E0F90120812061FC01208387E290E0B3
S11304A027E230E0F9012081207FFC0120838CA128
S11304B0882351F085E290E025E230E0F9012081C3
S11304C02062FC01208309C085E290E025E230E04F
S11304D0F90120812F7DFC01208381E08A8385E25C
S11304E090E025E230E0F90120812860FC012083BE
S11304F080E090E0A0E0BFE38B839C83AD83BE8368
S11305002BEA3AEA4AEA50E46B817C818D819E8130
S11305100E94F40EDC01CB018F839887A987BA87E8
S113052020E030E040E850E46B817C818D819E8145
S11305300E94F40EDC01CB018B879C87AD87BE87BC
S113054020E030E040E85FE36F81788589859A8513
S11305500E94970D88231CF481E08F87B2C020E0AD
S11305603FEF4FE757E46B857C858D859E850E9420
S1130570EF0E18160CF07BC020E030E04AE754E49C
S11305806B817C818D819E810E949C0DDC01CB015D
S1130590888B998BAA8BBB8B20E030E04AE755E42B
S11305A0688979898A899B890E94F40EDC01CB01D0
S11305B08C8B9D8BAE8BBF8B20E030E040E85FE3FB
S11305C06C897D898E899F890E94970D88232CF4DC
S11305D081E090E0998F888F3FC020E03FEF4FE7A4
S11305E057E46C897D898E899F890E94EF0E1816C5
S11305F04CF520E030E040E251E4688979898A8949
S11306009B890E94F40EDC01CB01BC01CD010E9448
S11306100E0EDC01CB01998F888F0FC080E991E029
S11306209B8F8A8F8A8D9B8D0197F1F79B8F8A8F81
S1130630888D998D0197998F888F888D998D892BB5
S113064069F73FC06C897D898E899F890E940E0E4F
S1130650DC01CB01998F888F888D998D9D8F8C8F2C
S11306608C8D9D8D0197F1F79D8F8C8F2AC020E092
S113067030E04FE753E46F81788589859A850E943D
S1130680EF0E1816ACF46B857C858D859E850E94D3
S11306900E0EDC01CB019F8F8E8F8E8D9F8D99A3C3
S11306A088A388A199A10197F1F799A388A30FC002
S11306B06F81788589859A850E940E0EDC01CB01B5
S11306C08F878F858AA38AA18A95F1F78AA38A8165
S11306D0882339F086E290E0FC0180818F708BA33F
S11306E001C01BA285E290E025E230E0F9012081FF
S11306F0277FFC0120838BA1898387E290E027E296
S113070030E0F90120812F60FC01208385E290E034
S113071025E230E0F90120812F7EFC0120838981CC
S1130720A4960FB6F894DEBF0FBECDBFDF91CF9174
S11307300895CF93DF9300D0CDB7DEB78A838A8143
S11307400E943A028295807F89838A810E943A02BC
S1130750982F8981892B898389810F900F90DF914C
S1130760CF910895CF93DF93CDB7DEB7AF970FB690
S1130770F894DEBF0FBECDBF8FA78FA5882309F4E1
S113078073C08CE59FE8A2ECBFE38D839E83AF83A7
S1130790B88720E030E04AE755E46D817E818F819F
S11307A098850E94F40EDC01CB0189879A87AB8778
S11307B0BC8720E030E040E85FE369857A858B857B
S11307C09C850E94970D88232CF481E090E09E87FD
S11307D08D873FC020E03FEF4FE757E469857A8576
S11307E08B859C850E94EF0E18164CF520E030E0B6
S11307F040E251E46D817E818F8198850E94F40EE0
S1130800DC01CB01BC01CD010E940E0EDC01CB0149
S11308109E878D870FC080E991E0988B8F878F85A5
S113082098890197F1F7988B8F878D859E8501971D
S11308309E878D878D859E85892B69F704C169857F
S11308407A858B859C850E940E0EDC01CB019E87E8
S11308508D878D859E859A8B898B89899A89019745
S1130860F1F79A8B898BEFC080E090E0A4E1B2E4C9
S113087089839A83AB83BC832BEA3AEA4AEA50E43D
S113088069817A818B819C810E94F40EDC01CB0109
S11308908B8B9C8BAD8BBE8B20E030E040E850E42A
S11308A069817A818B819C810E94F40EDC01CB01E9
S11308B08F8B988FA98FBA8F20E030E040E85FE3F8
S11308C06B897C898D899E890E94970D88231CF4ED
S11308D081E08B8FB2C020E03FEF4FE757E46F8990
S11308E0788D898D9A8D0E94EF0E18160CF07BC0BE
S11308F020E030E04AE754E469817A818B819C816D
S11309000E949C0DDC01CB018C8F9D8FAE8FBF8F1D
S113091020E030E04AE755E46C8D7D8D8E8D9F8D0F
S11309200E94F40EDC01CB0188A399A3AAA3BBA364
S113093020E030E040E85FE368A179A18AA19BA1AF
S11309400E94970D88232CF481E090E09DA38CA352
S11309503FC020E03FEF4FE757E468A179A18AA1A7
S11309609BA10E94EF0E18164CF520E030E040E207
S113097051E46C8D7D8D8E8D9F8D0E94F40EDC0173
S1130980CB01BC01CD010E940E0EDC01CB019DA365
S11309908CA30FC080E991E09FA38EA38EA19FA199
S11309A00197F1F79FA38EA38CA19DA101979DA30D
S11309B08CA38CA19DA1892B69F73FC068A179A163
S11309C08AA19BA10E940E0EDC01CB019DA38CA3E6
S11309D08CA19DA199A788A788A599A50197F1F74E
S11309E099A788A72AC020E030E04FE753E46B8939
S11309F07C898D899E890E94EF0E1816ACF46F894C
S1130A00788D898D9A8D0E940E0EDC01CB019BA7F7
S1130A108AA78AA59BA59DA78CA78CA59DA50197B0
S1130A20F1F79DA78CA70FC06B897C898D899E895E
S1130A300E940E0EDC01CB018B8F8B8D8EA78EA5B1
S1130A408A95F1F78EA70000AF960FB6F894DEBF33
S1130A500FBECDBFDF91CF9108950F931F93CF9316
S1130A60DF93CDB7DEB7CA54D1090FB6F894DEBF11
S1130A700FBECDBF84E290E024E230E0F901208192
S1130A802062FC01208384E290E024E230E0F9015A
S1130A9020812061FC01208384E290E024E230E0A4
S1130AA0F90120812860FC01208387E290E027E29D
S1130AB030E0F90120812F60FC01208380E090E088
S1130AC0A0E7B1E489839A83AB83BC838E010F5B77
S1130AD01F4F20E030E04AE755E469817A818B8139
S1130AE09C810E94F40EDC01CB01F8018083918388
S1130AF0A283B383CE018F5B9F4F20E030E040E8B8
S1130B005FE3FC0160817181828193810E94970D72
S1130B1088234CF4CE018B5B9F4F21E030E0FC0135
S1130B203183208369C0CE018F5B9F4F20E03FEF6C
S1130B304FE757E4FC0160817181828193810E94B7
S1130B40EF0E18160CF046C020E030E040E251E40D
S1130B5069817A818B819C810E94F40EDC01CB0136
S1130B608E010B5B1F4FBC01CD010E940E0EDC01F8
S1130B70CB01F8019183808324C0CE01895B9F4F10
S1130B8020E931E0FC0131832083CE01895B9F4F52
S1130B90FC01808191810197F1F79E01295B3F4F10
S1130BA0F90191838083CE018B5B9F4F9E012B5B68
S1130BB03F4FF9012081318121503109FC013183FA
S1130BC02083CE018B5B9F4FFC0180819181892B17
S1130BD0A1F62CC08E010B5B1F4FCE018F5B9F4F84
S1130BE0FC0160817181828193810E940E0EDC017F
S1130BF0CB01F80191838083CE01875B9F4F9E01D7
S1130C002B5B3F4FF90120813181FC01318320832B
S1130C10CE01875B9F4FFC01808191810197F1F7A1
S1130C209E01275B3F4FF9019183808360E083E05D
S1130C300E94D40083E393E3A3E8B0E48D839E830E
S1130C40AF83B88720E030E04AE755E46D817E81C8
S1130C508F8198850E94F40EDC01CB018FAB98AF95
S1130C60A9AFBAAF20E030E040E85FE36FA978AD08
S1130C7089AD9AAD0E94970D88232CF481E090E011
S1130C809CAF8BAF3FC020E03FEF4FE757E46FA925
S1130C9078AD89AD9AAD0E94EF0E18164CF520E0A0
S1130CA030E040E251E46D817E818F8198850E941D
S1130CB0F40EDC01CB01BC01CD010E940E0EDC015F
S1130CC0CB019CAF8BAF0FC080E991E09EAF8DAF9D
S1130CD08DAD9EAD0197F1F79EAF8DAF8BAD9CAD01
S1130CE001979CAF8BAF8BAD9CAD892B69F71EC070
S1130CF06FA978AD89AD9AAD0E940E0EDC01CB01CF
S1130D009CAF8BAF2BAD3CADCE01CF96FC013183B4
S1130D102083CE01CF96FC01808191810197F1F768
S1130D209E01215C3F4FF9019183808360E083E061
S1130D300E94D4008DEC9CECACECBDE389879A87CF
S1130D40AB87BC8720E030E04AE755E469857A85C3
S1130D508B859C850E94F40EDC01CB018DA79EA798
S1130D60AFA7B8AB20E030E040E85FE36DA57EA517
S1130D708FA598A90E94970D88232CF481E090E018
S1130D809AAB89AB3FC020E03FEF4FE757E46DA536
S1130D907EA58FA598A90E94EF0E18164CF520E0A9
S1130DA030E040E251E469857A858B859C850E9418
S1130DB0F40EDC01CB01BC01CD010E940E0EDC015E
S1130DC0CB019AAB89AB0FC080E991E09CAB8BABB4
S1130DD08BA99CA90197F1F79CAB8BAB89A99AA924
S1130DE001979AAB89AB89A99AA9892B69F714C091
S1130DF06DA57EA58FA598A90E940E0EDC01CB01DE
S1130E009AAB89AB89A99AA99EAB8DAB8DA99EA9F2
S1130E100197F1F79EAB8DAB60E083E00E94D400B4
S1130E2080E090E0A4E1B2E48D879E87AF87B88B21
S1130E302BEA3AEA4AEA50E46D857E858F859889E3
S1130E400E94F40EDC01CB01898B9A8BAB8BBC8B9B
S1130E5020E030E040E850E46D857E858F859889F8
S1130E600E94F40EDC01CB018D8B9E8BAF8BB88F6F
S1130E7020E030E040E85FE369897A898B899C89C6
S1130E800E94970D88231CF481E0898FB2C020E072
S1130E903FEF4FE757E46D897E898F89988D0E94D3
S1130EA0EF0E18160CF07BC020E030E04AE754E463
S1130EB06D857E858F8598890E949C0DDC01CB0110
S1130EC08A8F9B8FAC8FBD8F20E030E04AE755E4DA
S1130ED06A8D7B8D8C8D9D8D0E94F40EDC01CB017F
S1130EE08E8F9F8FA8A3B9A320E030E040E85FE392
S1130EF06E8D7F8D88A199A10E94970D88232CF473
S1130F0081E090E09BA38AA33FC020E03FEF4FE73E
S1130F1057E46E8D7F8D88A199A10E94EF0E18165B
S1130F204CF520E030E040E251E46A8D7B8D8C8DFD
S1130F309D8D0E94F40EDC01CB01BC01CD010E9409
S1130F400E0EDC01CB019BA38AA30FC080E991E0C4
S1130F509DA38CA38CA19DA10197F1F79DA38CA3C4
S1130F608AA19BA101979BA38AA38AA19BA1892BF8
S1130F7069F73FC06E8D7F8D88A199A10E940E0EE6
S1130F80DC01CB019BA38AA38AA19BA19FA38EA36F
S1130F908EA19FA10197F1F79FA38EA32AC020E001
S1130FA030E04FE753E469897A898B899C890E94F0
S1130FB0EF0E1816ACF46D897E898F89988D0E9486
S1130FC00E0EDC01CB0199A788A788A599A59BA73C
S1130FD08AA78AA59BA50197F1F79BA78AA70FC0AB
S1130FE069897A898B899C890E940E0EDC01CB0168
S1130FF0898F898D8CA78CA58A95F1F78CA760E0E1
S113100082E00E94D40080E00E94B20360E088E2A3
S11310100E94220280E00E94B20360E088E00E9405
S1131020220280E00E94B2030000C65BDF4F0FB6CD
S1131030F894DEBF0FBECDBFDF91CF911F910F910A
S11310400895CF93DF93CDB7DEB788E290E028E22E
S113105030E0F9012081207FFC01208385E290E0CB
S113106025E230E0F90120812F7DFC01208385E217
S113107090E025E230E0F90120812F7EFC012083FD
S113108085E290E025E230E0F9012081277FFC0130
S113109020830000DF91CF910895CF93DF93CDB7E4
S11310A0DEB70E942D0560E081E00E94220281E00B
S11310B00E94B20360E086E00E94220280E00E9467
S11310C0B20360E08EE00E94220280E00E94B2033C
S11310D00000DF91CF910895CF93DF9300D01F924A
S11310E0CDB7DEB789837B836A8380914801882FDB
S11310F090E00297D4F089818A30B9F080E00E94B0
S1131100B20360E081E00E94220280E00E94B20308
S113111060E082E00E94220281E00E94B20360E06B
S113112080E80E9422021092480189818A3079F471
S113113081E08093480180914801882379F081E01F
S11311400E94B20360E080EC0E94220207C080E0AB
S11311500E94B20361E089810E94220280E090E053
S11311600F900F900F90DF91CF910895CF93DF935D
S1131170CDB7DEB781E00E94B20360E080E80E9450
S113118022020000DF91CF910895CF93DF93CDB772
S1131190DEB780E00E94B20360E081E00E94220298
S11311A081E00E94B20360E080E80E942202000015
S11311B0DF91CF910895CF93DF93CDB7DEB781E070
S11311C00E94B20360E080EC0E9422020000DF91E2
S11311D0CF9108951F920F9200905F000F921124F7
S11311E02F933F938F939F93EF93FF93CF93DF932B
S11311F0CDB7DEB7F89488E490E0209110013091E7
S11312001101FC01208378940000DF91CF91FF91BC
S1131210EF919F918F913F912F910F9000925F00DA
S11312200F901F9018951F920F9200905F000F92DD
S113123011242F933F934F935F936F937F938F93D7
S11312409F93AF93BF93EF93FF93CF93DF931F923B
S1131250CDB7DEB70E947D0A8FE590E0FC01808166
S11312608983F89484E890E0FC01808191819093D3
S113127013018093120184E890E0FC011182108232
S11312808FE590E02981FC0120830E94700A789404
S113129000000F90DF91CF91FF91EF91BF91AF913B
S11312A09F918F917F916F915F914F913F912F917A
S11312B00F9000925F000F901F901895CF93DF93CB
S11312C0CDB7DEB760970FB6F894DEBF0FBECDBFC3
S11312D080E091E090934F0180934E0181E08D83F3
S11312E080E88E838E819D810FB6F894809361008F
S11312F0909361000FBE0E944D088AE290E02AE2BA
S113130030E0F90120812062FC01208384E290E036
S113131024E230E0F90120812C7FFC01208385E266
S113132090E025E230E0F90120812360FC01208374
S11313308AE290E02AE230E0F9012081277FFC0173
S1131340208389E690E029E630E0F90120812460D9
S1131350FC0120838DE390E02DE330E0F90120814E
S11313602260FC01208387E290E027E230E0F9016B
S113137020812061FC0120838AE290E02AE230E0AF
S1131380F90120812B7FFC0120830E94400A0E94E6
S1131390E40A0E948A0A0E948C0C80E090E0A0E299
S11313A0B1E489839A83AB83BC8320E030E04AE7CD
S11313B055E469817A818B819C810E94F40EDC0161
S11313C0CB018F839887A987BA8720E030E040E873
S11313D05FE36F81788589859A850E94970D8823BC
S11313E02CF481E090E09C878B873FC020E03FEFA6
S11313F04FE757E46F81788589859A850E94EF0EBF
S113140018164CF520E030E040E251E469817A811D
S11314108B819C810E94F40EDC01CB01BC01CD01C7
S11314200E940E0EDC01CB019C878B870FC080E9E4
S113143091E09E878D878D859E850197F1F79E8724
S11314408D878B859C8501979C878B878B859C8555
S1131450892B69F714C06F81788589859A850E94E4
S11314600E0EDC01CB019C878B878B859C85988B2A
S11314708F878F8598890197F1F7988B8F8787CF0E
S1131480CF93DF93CDB7DEB784E490E024E430E07B
S1131490F90120812162FC01208385E490E029E0A8
S11314A0FC01208387E490E020910E0130910F012C
S11314B0FC01208388E490E0209110013091110117
S11314C0FC0120838EE690E02EE630E0F9012081D5
S11314D02160FC01208378940000DF91CF9108956E
S11314E0CF93DF93CDB7DEB781E890E022E0FC0133
S11314F020830000DF91CF910895CF93DF93CDB780
S1131500DEB781E890E021E0FC0120830000DF9158
S1131510CF910895CF93DF931F92CDB7DEB783E2C7
S113152090E0FC01808183708983809149019981D5
S1131530981709F444C080914901882319F48981DA
S11315408130A9F080914901813019F48981833077
S113155071F080914901833019F48981823039F026
S113156080914901823069F48981882351F4809102
S11315701001909111010197909311018093100132
S113158009C080911001909111010196909311016D
S1131590809310018091100190911101893C910573
S11315A030F088EC90E090931101809310018091C9
S11315B010019091110189818093490101C00000BB
S11315C00F90DF91CF910895CF92DF92EF92FF9227
S11315D0CF93DF93CDB7DEB7E4970FB6F894DEBFB1
S11315E00FBECDBF0E94C5080E94B60880911201AB
S11315F090911301CC01A0E0B0E0BC01CD010E94A8
S11316003D0EDC01CB012DEB37E346E855E3BC018D
S1131610CD010E94F40EDC01CB0189839A83AB8354
S1131620BC8320E030E040E850E469817A818B811A
S11316309C810E94F40EDC01CB0189839A83AB83E5
S1131640BC8329813A814B815C8160E070E080E752
S113165092E40E949C0DDC01CB018D839E83AF83B9
S1131660B88788858F938F818F938E818F938D8197
S11316708F9384E191E0892F8F9384E191E08F939C
S1131680CE010D96292F2F938F930E9455148DB759
S11316909EB708960FB6F894DEBF0FBECDBFCE013D
S11316A00D96292F2F938F9380E291E0892F8F93AA
S11316B080E291E08F930E943F140F900F900F905F
S11316C00F908091100190911101CC01A0E0B0E045
S11316D0BC01CD010E943D0EDC01CB019C01AD019A
S11316E0BC01CD010E942B0DDC01CB0120E030E0D8
S11316F040E85FE3BC01CD010E942B0DDC01CB016E
S11317006C017D0180910E0190910F01880F991F4A
S1131710CC01A0E0B0E0BC01CD010E943D0EDC0193
S1131720CB019C01AD01C701B6010E949C0DDC01F7
S1131730CB0120E030E048EC52E4BC01CD010E9432
S1131740F40EDC01CB0120E030E040E85EE3BC01B4
S1131750CD010E942A0DDC01CB0189879A87AB87D2
S1131760BC8780914B01882309F04FC00E94DB089D
S113177020E030E040E451E469857A858B859C85DE
S11317800E94970D882374F40E94540C83E291E024
S1131790892F8F9383E291E08F930E943F140F90DF
S11317A00F9074C00E94650C8C858F938B858F93EA
S11317B08A858F9389858F938FE291E0892F8F9308
S11317C08FE291E08F93CE018196292F2F938F93EF
S11317D00E9455148DB79EB708960FB6F894DEBFD5
S11317E00FBECDBFCE018196292F2F938F9380E218
S11317F091E0892F8F9380E291E08F930E943F14B0
S11318000F900F900F900F9041C00E94DB0820E0D2
S113181030E040E451E469857A858B859C850E949B
S1131820970D882374F40E94540C83E291E0892F6D
S11318308F9383E291E08F930E943F140F900F9057
S113184025C00E94650C20E030E046E155E46D813E
S11318507E818F8198850E94970D882364F489E3A3
S113186091E0892F8F9389E391E08F930E943F1435
S11318700F900F900BC081E491E0892F8F9381E446
S113188091E08F930E943F140F900F900000E49614
S11318900FB6F894DEBF0FBECDBFDF91CF91FF909E
S11318A0EF90DF90CF900895CF93DF93CDB7DEB75D
S11318B088E290E028E230E0F90120812061FC0117
S11318C020830000DF91CF910895CF93DF93CDB7AC
S11318D0DEB788E290E028E230E0F90120812F7E33
S11318E0FC0120830000DF91CF910895CF93DF9313
S11318F0CDB7DEB780914B01882321F481E080933A
S11319004B0106C080914B01813011F410924B01C0
S11319100000DF91CF910895CF93DF93CDB7DEB769
S11319202E970FB6F894DEBF0FBECDBF89E290E0CC
S1131930FC018081882F90E084709927892B09F01D
S11319407DC080914A01882309F07AC081E08093A8
S11319504A010E94760C80E090E0A0EAB0E489831A
S11319609A83AB83BC8320E030E04AE755E4698185
S11319707A818B819C810E94F40EDC01CB018D83E2
S11319809E83AF83B88720E030E040E85FE36D8159
S11319907E818F8198850E94970D88232CF481E0A5
S11319A090E09A8789873FC020E03FEF4FE757E4F4
S11319B06D817E818F8198850E94EF0E18164CF5FB
S11319C020E030E040E251E469817A818B819C819E
S11319D00E94F40EDC01CB01BC01CD010E940E0E6D
S11319E0DC01CB019A8789870FC080E991E09C874D
S11319F08B878B859C850197F1F79C878B878985DD
S1131A009A8501979A87898789859A85892B69F7A9
S1131A1017C06D817E818F8198850E940E0EDC0136
S1131A20CB019A87898789859A859E878D878D853D
S1131A309E850197F1F79E878D8702C010924A0117
S1131A4000002E960FB6F894DEBF0FBECDBFDF9117
S1131A50CF9108955058BB27AA270E94420D0C9499
S1131A60B50E0E94A70E38F00E94AE0E20F039F495
S1131A709F3F19F426F40C94A40E0EF4E095E7FBB2
S1131A800C949E0EE92F0E94C60E58F3BA176207F3
S1131A9073078407950720F079F4A6F50C94E80EF3
S1131AA00EF4E0950B2EBA2FA02D0B01B901900175
S1131AB00C01CA01A0011124FF27591B99F0593FB9
S1131AC050F4503E68F11A16F040A22F232F342F01
S1131AD04427585FF3CF469537952795A795F0404F
S1131AE05395C9F77EF41F16BA0B620B730B840B64
S1131AF0BAF09150A1F0FF0FBB1F661F771F881F1C
S1131B00C2F70EC0BA0F621F731F841F48F4879573
S1131B1077956795B795F7959E3F08F0B0CF939565
S1131B20880F08F09927EE0F9795879508950E94DE
S1131B307A0E08F481E008950E94B00D0C94B50E5D
S1131B400E94AE0E58F00E94A70E40F029F45F3FA9
S1131B5029F00C949E0E51110C94E90E0C94A40ED1
S1131B600E94C60E68F39923B1F3552391F3951B94
S1131B70550BBB27AA2762177307840738F09F5FAA
S1131B805F4F220F331F441FAA1FA9F335D00E2E17
S1131B903AF0E0E832D091505040E695001CCAF784
S1131BA02BD0FE2F29D0660F771F881FBB1F261747
S1131BB037074807AB07B0E809F0BB0B802DBF011E
S1131BC0FF2793585F4F3AF09E3F510578F00C94ED
S1131BD09E0E0C94E90E5F3FE4F3983ED4F3869591
S1131BE077956795B795F7959F5FC9F7880F911D0E
S1131BF09695879597F90895E1E0660F771F881FFA
S1131C00BB1F621773078407BA0720F0621B730BAC
S1131C10840BBA0BEE1F88F7E09508950E94CE0E50
S1131C2088F09F5798F0B92F9927B751B0F0E1F099
S1131C30660F771F881F991F1AF0BA95C9F714C049
S1131C40B13091F00E94E80EB1E008950C94E80ED2
S1131C50672F782F8827B85F39F0B93FCCF3869582
S1131C6077956795B395D9F73EF4909580957095DF
S1131C7061957F4F8F4F9F4F0895E89409C097FB5C
S1131C803EF490958095709561957F4F8F4F9F4F4F
S1131C909923A9F0F92F96E9BB279395F695879593
S1131CA077956795B795F111F8CFFAF4BB0F11F456
S1131CB060FF1BC06F5F7F4F8F4F9F4F16C08823FD
S1131CC011F096E911C0772321F09EE8872F762F33
S1131CD005C0662371F096E8862F70E060E02AF074
S1131CE09A95660F771F881FDAF7880F9695879560
S1131CF097F90895990F0008550FAA0BE0E8FEEF35
S1131D0016161706E807F907C0F012161306E407BB
S1131D10F50798F0621B730B840B950B39F40A26B4
S1131D2061F0232B242B252B21F408950A2609F492
S1131D30A140A6958FEF811D811D089597F99F6796
S1131D4080E870E060E008959FEF80EC089500243F
S1131D500A941616170618060906089500240A940C
S1131D6012161306140605060895092E0394000C92
S1131D7011F4882352F0BB0F40F4BF2B11F460FF21
S1131D8004C06F5F7F4F8F4F9F4F089557FD90584A
S1131D90440F551F59F05F3F71F04795880F97FB2B
S1131DA0991F61F09F3F79F08795089512161306E5
S1131DB01406551FF2CF4695F1DF08C01616170614
S1131DC01806991FF1CF8695710561050894089549
S1131DD0E894BB2766277727CB0197F908950E94DB
S1131DE07A0E08F48FEF08950E94070F0C94B50E35
S1131DF00E94A70E38F00E94AE0E20F0952311F039
S1131E000C949E0E0C94A40E11240C94E90E0E94C2
S1131E10C60E70F3959FC1F3950F50E0551F629F56
S1131E20F001729FBB27F00DB11D639FAA27F00D2F
S1131E30B11DAA1F649F6627B00DA11D661F829F56
S1131E402227B00DA11D621F739FB00DA11D621F3B
S1131E50839FA00D611D221F749F3327A00D611D58
S1131E60231F849F600D211D822F762F6A2F11243A
S1131E709F5750409AF0F1F088234AF0EE0FFF1F6D
S1131E80BB1F661F771F881F91505040A9F79E3FC4
S1131E90510580F00C949E0E0C94E90E5F3FE4F320
S1131EA0983ED4F3869577956795B795F795E7951A
S1131EB09F5FC1F7FE2B880F911D9695879597F923
S1131EC00895A0E1B0E0E7E6FFE00C94DE127C01A7
S1131ED01B016A01FC0117821682838181FF44C3BE
S1131EE09E012F5F3F4F3901F7019381F10193FD6B
S1131EF0859193FF81911F01882309F431C38532B1
S1131F0039F493FD859193FF81911F01853239F452
S1131F10B70190E00E94031456016501E5CF10E07B
S1131F20512C912CFFE1F915D8F08B3279F038F46B
S1131F30803279F08332A1F4F92DF0612EC08D3214
S1131F4061F0803369F4292D21602DC0392D326070
S1131F50932E892D8460982E2AC0E92DE86015C03F
S1131F6097FC2DC020ED280F2A3088F496FE06C079
S1131F703AE0139F200D1124122F19C08AE0589EB5
S1131F80200D1124522EE92DE0629E2E10C08E32B7
S1131F9031F496FCE5C2F92DF0649F2E08C08C360E
S1131FA021F4292D2068922E02C0883641F4F101D3
S1131FB093FD859193FF81911F018111B3CF9BEB19
S1131FC0980F933020F4992D9061805E07C09BE9AF
S1131FD0980F933008F066C1992D9F7E96FF16E006
S1131FE09F73992E853619F49064992E08C086360D
S1131FF021F4392F3068932E02C01111115097FE2D
S113200007C01C3350F444244394410E27E00BC012
S1132010183038F027E017E005C027E09CE3492E8C
S113202002C0212F412C560184E0A80EB11CF601F8
S11320306081718182819381042DA3010E94151313
S11320406C01F981FC87F0FF02C0F3FF06C091FC2C
S113205006C092FE06C000E205C00DE203C00BE21A
S113206001C000E08C858C7019F001115AC29BC22A
S113207097FE10C04C0CFC85F4FF04C08A818133A8
S113208009F44A94141474F528E0241578F588E0CA
S1132090482E2CC096FC2AC0812F90E08C159D05FB
S11320A09CF03CEFC3163FEFD30674F0892D806893
S11320B0982E0AC0E2E0F0E0EC0FFD1FE10FF11DE5
S11320C08081803319F411501111F4CF97FE0EC0A2
S11320D044244394410E812F90E0C816D9062CF471
S11320E01C1904C04424439401C010E097FE06C0A8
S11320F01C141D0434F4C601019605C085E090E06B
S113210002C081E090E001110196112331F0212FEA
S113211030E02F5F3F4F820F931F252D30E0821751
S1132120930714F4581A01C0512C892D897049F46D
S1132130552039F0B70180E290E00E9403145A94CC
S1132140F7CF002329F0B701802F90E00E940314F9
S113215093FC09C0552039F0B70180E390E00E9458
S113216003145A94F7CF97FE4CC04601D7FE02C021
S1132170812C912CC60188199909F301E80FF91FE4
S1132180FE87ED87960124193109388B2F87012F9B
S113219010E01195019511093FEF8316930629F478
S11321A0B7018EE290E00E940314C814D9044CF0E5
S11321B08F8598898815990524F4ED85FE8581819C
S11321C001C080E3F1E08F1A91082D853E852F5FD1
S11321D03F4F3E872D87801691062CF0B70190E083
S11321E00E940314D9CFC814D90441F49A819633B8
S11321F020F4953319F43C8534FF81E3B70190E072
S11322004EC08A81813319F09C859F7E9C87B701DB
S113221090E00E940314111105C094FC18C085E6D7
S113222090E017C0B7018EE290E00E9403141E5F95
S113223082E001E0080FF301E80FF11D8081B7018E
S113224090E00E940314802F0113F3CFE6CF85E4BE
S113225090E0B7010E940314D7FC06C0C114D10456
S113226041F4EC85E4FF05C0D194C194D1088DE21A
S113227001C08BE2B70190E00E94031480E32AE0DE
S1132280C216D1042CF08F5FFAE0CF1AD108F7CF31
S1132290B70190E00E940314B701C601C0960E94E2
S11322A0031454C1833631F0833779F0833509F050
S11322B056C020C0560132E0A30EB11CF601808145
S11322C0898301E010E0630112C05601F2E0AF0E11
S11322D0B11CF601C080D18096FE03C0612F70E06E
S11322E002C06FEF7FEFC6010E94F8138C01F92D35
S11322F0FF7714C0560122E0A20EB11CF601C08083
S1132300D18096FE03C0612F70E002C06FEF7FEFB3
S1132310C6010E94ED138C01F92DF0689F2EF3FD88
S11323201AC0852D90E008171907A8F4B70180E2B8
S113233090E00E9403145A94F4CFF60197FC85911F
S113234097FE81916F01B70190E00E940314511030
S11323505A94015011090115110579F7F7C0843613
S113236011F0893661F5560197FE09C024E0A20EEA
S1132370B11CF60160817181828193810AC0F2E00F
S1132380AF0EB11CF60160817181072E000C880B21
S1132390990BF92DFF769F2E97FF09C09095809594
S11323A0709561957F4F8F4F9F4FF0689F2E2AE065
S11323B030E0A3010E947714C82EC6183FC0092D2F
S11323C0853721F40F7E2AE030E01DC0097F8F3667
S11323D091F018F4883559F0C3C0803719F0883764
S11323E011F0BEC0006104FF09C0046007C094FE80
S11323F008C0066006C028E030E005C020E130E0F7
S113240002C020E132E0560107FF09C084E0A80EB3
S1132410B11CF601608171818281938108C0F2E070
S1132420AF0EB11CF6016081718180E090E0A301E0
S11324300E947714C82EC6180F77902E96FE0BC0F4
S1132440092D0E7FC11650F494FE0AC092FC08C0F8
S1132450092D0E7E05C0DC2C092D03C0DC2C01C027
S1132460D12E04FF0DC0FE01EC0DF11D80818033DF
S113247011F4097E09C002FF06C0D394D39404C0AA
S1132480802F867809F0D39403FD11C000FF06C0A5
S11324901C2DD51480F4150D1D190DC0D51458F438
S11324A0B70180E290E00E940314D394F7CFD514CF
S11324B010F45D1801C0512C04FF10C0B70180E373
S11324C090E00E94031402FF17C001FD03C088E7D7
S11324D090E002C088E590E0B7010CC0802F8678B8
S11324E059F001FF02C08BE201C080E207FD8DE2DA
S11324F0B70190E00E940314C11638F4B70180E3D9
S113250090E00E9403141150F7CFCA94F301EC0D2C
S1132510F11D8081B70190E00E940314C110F5CF32
S113252015C0F4E0F51560F584E0581A93FE1FC059
S1132530011127C02C8523FF2AC008E610E0392D9D
S11325403071932EF8018491811124C0552009F42F
S1132550E4CCB70180E290E00E9403145A94F6CFD1
S1132560F7018681978126C08FEF9FEF23C0B701C3
S113257080E290E00E9403145A945110F8CFD8CF0F
S1132580512CB701802F90E00E940314D3CF0CE6A6
S113259010E0D5CF91108052B70190E00E9403144F
S11325A00F5F1F4FCFCF23E0251510F483E0BDCF7D
S11325B0512CC0CF6096E2E10C94FA122F923F9214
S11325C04F925F926F927F928F929F92AF92BF923F
S11325D0CF92DF92EF92FF920F931F93CF93DF93EB
S11325E0CDB7DEB7CA1BDB0B0FB6F894DEBF0FBE48
S11325F0CDBF09942A88398848885F846E847D8495
S11326008C849B84AA84B984C884DF80EE80FD8096
S11326100C811B81AA81B981CE0FD11D0FB6F8940C
S1132620DEBF0FBECDBFED010895283008F027E0CE
S11326303327DA01990F311D87FD916000966105FA
S1132640710539F432602E5F3D9330E32A95E1F74A
S113265008959F3F30F080387105610509F03C5FB3
S11326603C5F3D93913008F08068911DDF93CF93D8
S11326701F930F93FF92EF92192F987F9695E92F4E
S113268096959695E90FFF27E653FF4F9927332731
S1132690EE24FF24A701E70105900894079428F489
S11326A0360FE71EF81E491F511D660F771F881F3E
S11326B0991F0694A1F70590079428F4E70EF81ED5
S11326C0491F561FC11D770F881F991F661F069447
S11326D0A1F70590079428F4F80E491F561FC71F49
S11326E0D11D880F991F661F771F0694A1F70590C7
S11326F0079420F4490F561FC71FD81F990F661F50
S1132700771F881F0694A9F784911095177041F0DC
S1132710D695C79557954795F794E7941A95C1F7B9
S1132720E0E7F0E0689415901591359165919591E5
S113273005907FE27395E118F10A430B560BC90B20
S1132740D009C0F7E10CF11E431F561FC91FD01D4D
S11327507EF4703311F48A95E6CFE894015030F09A
S1132760080F0AF40027021708F4202F2395022FDC
S11327707A3328F079E37D932A95E9F710C07D93A5
S11327802A9589F606949795679537951795179422
S1132790E118F10A430B560BC90BD00998F02395A5
S11327A07E9173957A3308F070E37C932013B8F725
S11327B07E9170617D9330F0839571E37D9370E336
S11327C02A95E1F71124EF90FF900F911F91CF917B
S11327D0DF91992787FD90950895FC01059061503C
S11327E070400110D8F7809590958E0F9F1F089523
S11327F0FC016150704001900110D8F780959095CC
S11328008E0F9F1F08950F931F93CF93DF93FB01A8
S1132810238121FD03C08FEF9FEF2CC022FF16C040
S113282046815781248135814217530744F4A0819E
S1132830B1819D012F5F3F4F318320838C9326818B
S113284037812F5F3F4F3783268314C08B01EC0100
S1132850FB010084F185E02D0995892BE1F6D8016F
S113286016968D919C911797019617969C938E932B
S11328701697CE01DF91CF911F910F910895A0E09B
S1132880B0E0E5E4F4E10C94EE12AE014B5F5F4F6F
S1132890FA0161917191AF0180914E0190914F01C4
S11328A00E94610FE2E00C940A13AEE0B0E0EBE5A5
S11328B0F4E10C94EC120D891E8986E08C831A8352
S11328C009838FEF9FE79E838D83AE01475E5F4F41
S11328D06F89788DCE0101960E94610FEF81F88592
S11328E0E00FF11F10822E96E4E00C940813FA0115
S11328F0AA27283051F1203181F1E8946F936E7F3B
S11329006E5F7F4F8F4F9F4FAF4FB1E03ED0B4E02B
S11329103CD0670F781F891F9A1FA11D680F791F6C
S11329208A1F911DA11D6A0F711D811D911DA11D7D
S113293020D009F468943F912AE0269F112430198D
S1132940305D3193DEF6CF010895462F4770405D28
S11329504193B3E00FD0C9F7F6CF462F4F70405DD7
S11329604A3318F0495D31FD4052419302D0A9F732
S1132970EACFB4E0A6959795879577956795BA952C
S1132980C9F700976105710508959B01AC010A2EF2
S113299006945795479537952795BA95C9F7620FC9
S11129A0731F841F951FA01D0895F894FFCF88
S11329AE00000002000000006C0800000000C800D7
S11329BE6400802552504D203D2025342E30660073
S11329CE25730046616E205374616C6C656400441B
S11329DE203D2025342E3266004C6F772052504D08
S10B29EE0046616E204F4B000E
S9030000FC
