S00C00004C6162352E73726563D4
S11300000C9434000C9451000C9451000C94510045
S11300100C9451000C9451000C9451000C94510018
S11300200C9451000C9451000C9451000C94510008
S11300300C9451000C9451000C9469080C945100D8
S11300400C9451000C9451000C9451000C945100E8
S11300500C9451000C9451000C9451000C945100D8
S11300600C9451000C94510011241FBECFEFD8E022
S1130070DEBFCDBF11E0A0E0B1E0E0E6FEE102C0EA
S113008005900D92A032B107D9F721E0A0E2B1E0CA
S113009001C01D92A832B207E1F70E94B6080C9481
S11300A02E0F0C940000CF93DF93CDB7DEB7A49747
S11300B00FB6F894DEBF0FBECDBF8BA36CA385E251
S11300C090E025E230E0F90120812F7EFC012083BD
S11300D08CA1882351F085E290E025E230E0F9011B
S11300E020812062FC01208309C085E290E025E2A2
S11300F030E0F90120812F7DFC01208388E290E02B
S113010028E230E0F9012081322F307F2BA1232B0C
S1130110FC012083198285E290E025E230E0F901B8
S113012020812860FC01208380E090E0A0E0BFE310
S11301308A839B83AC83BD832BEA3AEA4AE250E488
S11301406A817B818C819D810E94910BDC01CB01B2
S11301508E839F83A887B9878A819B81AC81BD8167
S11301609C01AD01BC01CD010E94C109DC01CB01A0
S11301708A879B87AC87BD8720E030E040E85FE357
S11301806E817F81888599850E942D0A88231CF4BD
S113019081E08E87B2C020E03FEF4FE757E46A85E5
S11301A07B858C859D850E948C0B18160CF07BC07A
S11301B020E030E04AE754E46A817B818C819D81B0
S11301C00E94320ADC01CB018F87988BA98BBA8BF2
S11301D020E030E04AEF54E46F85788989899A8970
S11301E00E94910BDC01CB018B8B9C8BAD8BBE8B66
S11301F020E030E040E85FE36B897C898D899E894B
S11302000E942D0A88232CF481E090E0988F8F8B34
S11302103FC020E03FEF4FE757E46B897C898D892D
S11302209E890E948C0B18164CF520E030E040E2C9
S113023051E46F85788989899A890E94910BDC0140
S1130240CB01BC01CD010E94AB0ADC01CB01988F2C
S11302508F8B0FC088EC90E09A8F898F898D9A8D4F
S11302600197F1F79A8F898F8F89988D0197988FCD
S11302708F8B8F89988D892B69F73FC06B897C8917
S11302808D899E890E94AB0ADC01CB01988F8F8BEC
S11302908F89988D9C8F8B8F8B8D9C8D0197F1F717
S11302A09C8F8B8F2AC020E030E04FE753E46E81AF
S11302B07F81888599850E948C0B1816ACF46A8519
S11302C07B858C859D850E94AB0ADC01CB019E8FCA
S11302D08D8F8D8D9E8D98A38F8F8F8D98A1019773
S11302E0F1F798A38F8F0FC06E817F8188859985E0
S11302F00E94AB0ADC01CB018E878E8589A389A17C
S11303008A95F1F789A38981882339F086E290E000
S1130310FC0180818F708AA301C01AA285E290E05B
S113032025E230E0F9012081277FFC0120830000D1
S1130330A4960FB6F894DEBF0FBECDBFDF91CF9168
S11303400895CF93DF9300D0CDB7DEB789836A8356
S1130350898182958F706A810E94530089818F7090
S11303606A810E94530000000F900F90DF91CF919B
S11303700895CF93DF93CDB7DEB7A4970FB6F89463
S1130380DEBF0FBECDBF8CA385E290E025E230E056
S1130390F90120812061FC01208387E290E027E2BB
S11303A030E0F9012081207FFC0120838CA1882387
S11303B051F085E290E025E230E0F90120812062ED
S11303C0FC01208309C085E290E025E230E0F901D8
S11303D020812F7DFC01208381E08A8385E290E0E7
S11303E025E230E0F90120812860FC01208380E0CF
S11303F090E0A0E0BFE38B839C83AD83BE832BEAB4
S11304003AEA4AE250E46B817C818D819E810E94AC
S1130410910BDC01CB018F839887A987BA878B81E5
S11304209C81AD81BE819C01AD01BC01CD010E94C6
S1130430C109DC01CB018B879C87AD87BE8720E097
S113044030E040E85FE36F81788589859A850E9472
S11304502D0A88231CF481E08F87B2C020E03FEF8F
S11304604FE757E46B857C858D859E850E948C0BB8
S113047018160CF07BC020E030E04AE754E46B81AE
S11304807C818D819E810E94320ADC01CB01888BA4
S1130490998BAA8BBB8B20E030E04AEF54E4688947
S11304A079898A899B890E94910BDC01CB018C8B11
S11304B09D8BAE8BBF8B20E030E040E85FE36C891E
S11304C07D898E899F890E942D0A88232CF481E0DE
S11304D090E0998F888F3FC020E03FEF4FE757E4CB
S11304E06C897D898E899F890E948C0B18164CF526
S11304F020E030E040E251E4688979898A899B8967
S11305000E94910BDC01CB01BC01CD010E94AB0A1E
S1130510DC01CB01998F888F0FC088EC90E09B8F12
S11305208A8F8A8D9B8D0197F1F79B8F8A8F888D97
S1130530998D0197998F888F888D998D892B69F76B
S11305403FC06C897D898E899F890E94AB0ADC013A
S1130550CB01998F888F888D998D9D8F8C8F8C8DF1
S11305609D8D0197F1F79D8F8C8F2AC020E030E09C
S11305704FE753E46F81788589859A850E948C0BB7
S11305801816ACF46B857C858D859E850E94AB0A1C
S1130590DC01CB019F8F8E8F8E8D9F8D99A388A3B5
S11305A088A199A10197F1F799A388A30FC06F813E
S11305B0788589859A850E94AB0ADC01CB018F87F7
S11305C08F858AA38AA18A95F1F78AA38A818823D1
S11305D039F086E290E0FC0180818F708BA301C02A
S11305E01BA285E290E025E230E0F9012081277F1B
S11305F0FC0120838BA1898387E290E027E230E02D
S1130600F90120812F60FC01208385E290E025E23E
S113061030E0F90120812F7EFC0120838981A4969A
S11306200FB6F894DEBF0FBECDBFDF91CF91089512
S1130630CF93DF9300D0CDB7DEB78A838A810E943F
S1130640B9018295807F89838A810E94B901982F9C
S11306508981892B898389810F900F90DF91CF91B4
S11306600895CF93DF93CDB7DEB7AF970FB6F89465
S1130670DEBF0FBECDBF8FA78FA5882309F473C03B
S11306808CE59FE8A2ECBFE38D839E83AF83B8879C
S113069020E030E04AEF54E46D817E818F819885BB
S11306A00E94910BDC01CB0189879A87AB87BC87B9
S11306B020E030E040E85FE369857A858B859C859E
S11306C00E942D0A88232CF481E090E09E878D8778
S11306D03FC020E03FEF4FE757E469857A858B857B
S11306E09C850E948C0B18164CF520E030E040E20B
S11306F051E46D817E818F8198850E94910BDC018C
S1130700CB01BC01CD010E94AB0ADC01CB019E8769
S11307108D870FC088EC90E0988B8F878F859889A0
S11307200197F1F7988B8F878D859E8501979E871A
S11307308D878D859E85892B69F704C169857A85A6
S11307408B859C850E94AB0ADC01CB019E878D873B
S11307508D859E859A8B898B89899A890197F1F772
S11307609A8B898BEFC080E090E0A4E1B2E48983A6
S11307709A83AB83BC832BEA3AEA4AE250E4698168
S11307807A818B819C810E94910BDC01CB018B8B44
S11307909C8BAD8BBE8B89819A81AB81BC819C0182
S11307A0AD01BC01CD010E94C109DC01CB018F8BDD
S11307B0988FA98FBA8F20E030E040E85FE36B891F
S11307C07C898D899E890E942D0A88231CF481E0EE
S11307D08B8FB2C020E03FEF4FE757E46F89788DED
S11307E0898D9A8D0E948C0B18160CF07BC020E02A
S11307F030E04AE754E469817A818B819C810E94CC
S1130800320ADC01CB018C8F9D8FAE8FBF8F20E02D
S113081030E04AEF54E46C8D7D8D8E8D9F8D0E9467
S1130820910BDC01CB0188A399A3AAA3BBA320E06D
S113083030E040E85FE368A179A18AA19BA10E940E
S11308402D0A88232CF481E090E09DA38CA33FC063
S113085020E03FEF4FE757E468A179A18AA19BA16B
S11308600E948C0B18164CF520E030E040E251E475
S11308706C8D7D8D8E8D9F8D0E94910BDC01CB0143
S1130880BC01CD010E94AB0ADC01CB019DA38CA36A
S11308900FC088EC90E09FA38EA38EA19FA1019727
S11308A0F1F79FA38EA38CA19DA101979DA38CA377
S11308B08CA19DA1892B69F73FC068A179A18AA168
S11308C09BA10E94AB0ADC01CB019DA38CA38CA14C
S11308D09DA199A788A788A599A50197F1F799A73C
S11308E088A72AC020E030E04FE753E46B897C8975
S11308F08D899E890E948C0B1816ACF46F89788DB3
S1130900898D9A8D0E94AB0ADC01CB019BA78AA733
S11309108AA59BA59DA78CA78CA59DA50197F1F7FA
S11309209DA78CA70FC06B897C898D899E890E94A5
S1130930AB0ADC01CB018B8F8B8D8EA78EA58A959C
S1130940F1F78EA70000AF960FB6F894DEBF0FBE86
S1130950CDBFDF91CF9108950F931F93CF93DF9372
S1130960CDB7DEB7CA54D1090FB6F894DEBF0FBEB7
S1130970CDBF84E290E024E230E0F90120812062DE
S1130980FC01208384E290E024E230E0F90120813C
S11309902061FC01208384E290E024E230E0F9014C
S11309A020812860FC01208387E290E027E230E088
S11309B0F90120812F60FC01208380E090E0A0E712
S11309C0B1E489839A83AB83BC838E010F5B1F4F91
S11309D020E030E04AEF54E469817A818B819C8184
S11309E00E94910BDC01CB01F80180839183A283E7
S11309F0B383CE018F5B9F4F20E030E040E85FE39C
S1130A00FC0160817181828193810E942D0A882377
S1130A104CF4CE018B5B9F4F21E030E0FC0131832D
S1130A20208369C0CE018F5B9F4F20E03FEF4FE7EB
S1130A3057E4FC0160817181828193810E948C0B57
S1130A4018160CF046C020E030E040E251E4698121
S1130A507A818B819C810E94910BDC01CB018E01F8
S1130A600B5B1F4FBC01CD010E94AB0ADC01CB0123
S1130A70F8019183808324C0CE01895B9F4F28ECC9
S1130A8030E0FC0131832083CE01895B9F4FFC0160
S1130A90808191810197F1F79E01295B3F4FF90114
S1130AA091838083CE018B5B9F4F9E012B5B3F4FD5
S1130AB0F9012081318121503109FC0131832083E6
S1130AC0CE018B5B9F4FFC0180819181892BA1F624
S1130AD02CC08E010B5B1F4FCE018F5B9F4FFC011F
S1130AE060817181828193810E94AB0ADC01CB0118
S1130AF0F80191838083CE01875B9F4F9E012B5B1E
S1130B003F4FF90120813181FC0131832083CE01E3
S1130B10875B9F4FFC01808191810197F1F79E01D2
S1130B20275B3F4FF9019183808360E083E00E945B
S1130B30530083E393E3A3E8B0E48D839E83AF8300
S1130B40B88720E030E04AEF54E46D817E818F81E4
S1130B5098850E94910BDC01CB018FAB98AFA9AFB4
S1130B60BAAF20E030E040E85FE36FA978AD89AD2B
S1130B709AAD0E942D0A88232CF481E090E09CAF6A
S1130B808BAF3FC020E03FEF4FE757E46FA978AD4C
S1130B9089AD9AAD0E948C0B18164CF520E030E01C
S1130BA040E251E46D817E818F8198850E94910B92
S1130BB0DC01CB01BC01CD010E94AB0ADC01CB01FD
S1130BC09CAF8BAF0FC088EC90E09EAF8DAF8DAD26
S1130BD09EAD0197F1F79EAF8DAF8BAD9CAD0197A4
S1130BE09CAF8BAF8BAD9CAD892B69F71EC06FA9F1
S1130BF078AD89AD9AAD0E94AB0ADC01CB019CAF04
S1130C008BAF2BAD3CADCE01CF96FC01318320835D
S1130C10CE01CF96FC01808191810197F1F79E016D
S1130C20215C3F4FF9019183808360E083E00E945F
S1130C3053008DEC9CECACECBDE389879A87AB87C1
S1130C40BC8720E030E04AEF54E469857A858B85DF
S1130C509C850E94910BDC01CB018DA79EA7AFA7B9
S1130C60B8AB20E030E040E85FE36DA57EA58FA53A
S1130C7098A90E942D0A88232CF481E090E09AAB75
S1130C8089AB3FC020E03FEF4FE757E46DA57EA559
S1130C908FA598A90E948C0B18164CF520E030E023
S1130CA040E251E469857A858B859C850E94910B8D
S1130CB0DC01CB01BC01CD010E94AB0ADC01CB01FC
S1130CC09AAB89AB0FC088EC90E09CAB8BAB8BA943
S1130CD09CA90197F1F79CAB8BAB89A99AA90197C1
S1130CE09AAB89AB89A99AA9892B69F714C06DA518
S1130CF07EA58FA598A90E94AB0ADC01CB019AAB13
S1130D0089AB89A99AA99EAB8DAB8DA99EA90197A0
S1130D10F1F79EAB8DAB60E083E00E94530080E06E
S1130D2090E0A4E1B2E48D879E87AF87B88B2BEA6D
S1130D303AEA4AE250E46D857E858F8598890E945F
S1130D40910BDC01CB01898B9A8BAB8BBC8B8D8592
S1130D509E85AF85B8899C01AD01BC01CD010E947F
S1130D60C109DC01CB018D8B9E8BAF8BB88F20E04A
S1130D7030E040E85FE369897A898B899C890E9425
S1130D802D0A88231CF481E0898FB2C020E03FEF54
S1130D904FE757E46D897E898F89988D0E948C0B6B
S1130DA018160CF07BC020E030E04AE754E46D856F
S1130DB07E858F8598890E94320ADC01CB018A8F57
S1130DC09B8FAC8FBD8F20E030E04AEF54E46A8DF6
S1130DD07B8D8C8D9D8D0E94910BDC01CB018E8FC0
S1130DE09F8FA8A3B9A320E030E040E85FE36E8DB5
S1130DF07F8D88A199A10E942D0A88232CF481E07B
S1130E0090E09BA38AA33FC020E03FEF4FE757E465
S1130E106E8D7F8D88A199A10E948C0B18164CF5BC
S1130E2020E030E040E251E46A8D7B8D8C8D9D8D15
S1130E300E94910BDC01CB01BC01CD010E94AB0AE5
S1130E40DC01CB019BA38AA30FC088EC90E09DA397
S1130E508CA38CA19DA10197F1F79DA38CA38AA1DA
S1130E609BA101979BA38AA38AA19BA1892B69F7C4
S1130E703FC06E8D7F8D88A199A10E94AB0ADC01D1
S1130E80CB019BA38AA38AA19BA19FA38EA38EA11E
S1130E909FA10197F1F79FA38EA32AC020E030E021
S1130EA04FE753E469897A898B899C890E948C0B6A
S1130EB01816ACF46D897E898F89988D0E94AB0ACF
S1130EC0DC01CB0199A788A788A599A59BA78AA728
S1130ED08AA59BA50197F1F79BA78AA70FC06989EB
S1130EE07A898B899C890E94AB0ADC01CB01898FAA
S1130EF0898D8CA78CA58A95F1F78CA760E082E098
S1130F000E94530080E00E94310360E088E20E9466
S1130F10A10180E00E94310360E088E00E94A10109
S1130F2080E00E9431030000C65BDF4F0FB6F894E7
S1130F30DEBF0FBECDBFDF91CF911F910F910895FA
S1130F40CF93DF93CDB7DEB788E290E028E230E0BC
S1130F50F9012081207FFC01208385E290E025E2D5
S1130F6030E0F90120812F7DFC01208385E290E0AF
S1130F7025E230E0F90120812F7EFC01208385E207
S1130F8090E025E230E0F9012081277FFC012083F5
S1130F900000DF91CF910895CF93DF93CDB7DEB7F3
S1130FA00E94AC0460E081E00E94A10181E00E9403
S1130FB0310360E086E00E94A10180E00E943103D9
S1130FC060E08EE00E94A10180E00E9431030000F5
S1130FD0DF91CF910895CF93DF9300D01F92CDB7C7
S1130FE0DEB789837B836A8380912001882F90E018
S1130FF00297D4F089818A30B9F080E00E943103ED
S113100060E081E00E94A10180E00E94310360E081
S113101082E00E94A10181E00E94310360E080E847
S11310200E94A1011092200189818A3079F481E023
S11310308093200180912001882379F081E00E942F
S1131040310360E080EC0E94A10107C080E00E94AF
S1131050310361E089810E94A10180E090E00F905A
S11310600F900F90DF91CF910895CF93DF93CDB779
S1131070DEB781E00E94310360E080E80E94A101B4
S11310800000DF91CF910895CF93DF93CDB7DEB702
S113109080E00E94310360E081E00E94A10181E0D0
S11310A00E94310360E080E80E94A1010000DF910A
S11310B0CF910895CF93DF93CDB7DEB781E00E943F
S11310C0310360E080EC0E94A1010000DF91CF9128
S11310D008951F920F9200905F000F9211242F9396
S11310E03F934F938F939F93EF93FF93CF93DF930C
S11310F0CDB7DEB7809121018823B1F08BE290E077
S11311002BE230E0F90120812F7DFC01208387E46C
S113111090E020910E0134E6F32FF21B2F2FFC01F7
S113112020831092210112C08BE290E02BE230E088
S1131130F90120812062FC01208387E490E0209162
S11311400E01FC01208381E0809321010000DF91E6
S1131150CF91FF91EF919F918F914F913F912F915B
S11311600F9000925F000F901F901895CF93DF931C
S1131170CDB7DEB76A970FB6F894DEBF0FBECDBF0A
S113118080E091E0909325018093240182E08D8397
S113119080E88E838E819D810FB6F89480936100E0
S11311A0909361000FBE0E94CC078AE290E02AE28D
S11311B030E0F90120812062FC0120830E942C0987
S11311C087E490E0FC018081882F90E00196880FED
S11311D0991F880F991F9C01990F440B550B80E0B0
S11311E092E1AAE7B0E0BC01CD010E94FE0BDA0156
S11311F0C901BC01CD010E94DA0ADC01CB0120E067
S113120030E0A901BC01CD010E94C109DC01CB0180
S113121089839A83AB83BC83AE01495F5F4F898125
S11312209A81AB81BC8124E130E0BC01CD010E94F4
S11312305109CE010796292F2F938F938FE091E0C8
S1131240892F8F938FE091E08F930E94200C0F9051
S11312500F900F900F90FFCFCF93DF93CDB7DEB7F2
S113126084E490E024E430E0F90120812260FC0170
S1131270208385E490E021E0FC01208387E490E072
S113128024E6FC0120838EE690E02EE630E0F901AE
S113129020812260FC01208378940000DF91CF91AB
S11312A00895CF93DF93CDB7DEB72C970FB6F8949C
S11312B0DEBF0FBECDBF6D837E838F8398875A8731
S11312C049873C872B876D817E818F8198850E9419
S11312D0A40ADC01CB019A83898389819A81092E2E
S11312E0000CAA0BBB0BBC01CD010E94DC0ADC0183
S11312F0CB019C01AD016D817E818F8198850E9417
S1131300C009DC01CB0120E030E048EC52E4BC0130
S1131310CD010E94910BDC01CB01BC01CD010E94E7
S1131320A40ADC01CB019C838B838C818F938B81FA
S11313308F938A818F9389818F9388E191E0892F9C
S11313408F9388E191E08F938C858F938B858F9316
S11313508A858F9389858F930E94360C8DB79EB7AB
S11313600A960FB6F894DEBF0FBECDBF00002C96D0
S11313700FB6F894DEBF0FBECDBFDF91CF910895B5
S11313805058BB27AA270E94D8090C94520B0E94DC
S1131390440B38F00E944B0B20F039F49F3F19F4B2
S11313A026F40C94410B0EF4E095E7FB0C943B0BF4
S11313B0E92F0E94630B58F3BA1762077307840777
S11313C0950720F079F4A6F50C94850B0EF4E095BE
S11313D00B2EBA2FA02D0B01B90190010C01CA01EB
S11313E0A0011124FF27591B99F0593F50F4503E96
S11313F068F11A16F040A22F232F342F4427585F88
S1131400F3CF469537952795A795F0405395C9F79F
S11314107EF41F16BA0B620B730B840BBAF0915057
S1131420A1F0FF0FBB1F661F771F881FC2F70EC0F6
S1131430BA0F621F731F841F48F4879577956795C9
S1131440B795F7959E3F08F0B0CF9395880F08F0B5
S11314509927EE0F9795879508950E94170B08F426
S113146081E008950E94460A0C94520B0E944B0B93
S113147058F00E94440B40F029F45F3F29F00C948B
S11314803B0B51110C94860B0C94410B0E94630B83
S113149068F39923B1F3552391F3951B550BBB279F
S11314A0AA2762177307840738F09F5F5F4F220FE4
S11314B0331F441FAA1FA9F335D00E2E3AF0E0E8DB
S11314C032D091505040E695001CCAF72BD0FE2F25
S11314D029D0660F771F881FBB1F261737074807B9
S11314E0AB07B0E809F0BB0B802DBF01FF27935871
S11314F05F4F3AF09E3F510578F00C943B0B0C94EF
S1131500860B5F3FE4F3983ED4F386957795679511
S1131510B795F7959F5FC9F7880F911D96958795A5
S113152097F90895E1E0660F771F881FBB1F6217C4
S113153073078407BA0720F0621B730B840BBA0B82
S1131540EE1F88F7E09508950E94AB0A6894B111E4
S11315500C94860B08950E946B0B88F09F5798F0AB
S1131560B92F9927B751B0F0E1F0660F771F881FA4
S1131570991F1AF0BA95C9F714C0B13091F00E94BE
S1131580850BB1E008950C94850B672F782F88277D
S1131590B85F39F0B93FCCF3869577956795B395E5
S11315A0D9F73EF490958095709561957F4F8F4F54
S11315B09F4F0895E89409C097FB3EF49095809559
S11315C0709561957F4F8F4F9F4F9923A9F0F92F05
S11315D096E9BB279395F695879577956795B79583
S11315E0F111F8CFFAF4BB0F11F460FF1BC06F5F69
S11315F07F4F8F4F9F4F16C0882311F096E911C07B
S1131600772321F09EE8872F762F05C0662371F09B
S113161096E8862F70E060E02AF09A95660F771FAF
S1131620881FDAF7880F9695879597F90895990F8B
S11316300008550FAA0BE0E8FEEF16161706E80798
S1131640F907C0F012161306E407F50798F0621BB9
S1131650730B840B950B39F40A2661F0232B242B8E
S1131660252B21F408950A2609F4A140A6958FEFAD
S1131670811D811D089597F99F6780E870E060E0FF
S113168008959FEF80EC089500240A941616170617
S113169018060906089500240A941216130614065F
S11316A005060895092E0394000C11F4882352F0C2
S11316B0BB0F40F4BF2B11F460FF04C06F5F7F4F7A
S11316C08F4F9F4F089557FD9058440F551F59F061
S11316D05F3F71F04795880F97FB991F61F09F3F1B
S11316E079F087950895121613061406551FF2CF44
S11316F04695F1DF08C0161617061806991FF1CF94
S113170086957105610508940895E894BB276627BA
S11317107727CB0197F908950E94170B08F48FEFF0
S113172008950E94A40B0C94520B0E94440B38F0B1
S11317300E944B0B20F0952311F00C943B0B0C945E
S1131740410B11240C94860B0E94630B70F3959F3C
S1131750C1F3950F50E0551F629FF001729FBB27A4
S1131760F00DB11D639FAA27F00DB11DAA1F649F40
S11317706627B00DA11D661F829F2227B00DA11DF3
S1131780621F739FB00DA11D621F839FA00D611D79
S1131790221F749F3327A00D611D231F849F600D9A
S11317A0211D822F762F6A2F11249F5750409AF0C3
S11317B0F1F088234AF0EE0FFF1FBB1F661F771F4F
S11317C0881F91505040A9F79E3F510580F00C941A
S11317D03B0B0C94860B5F3FE4F3983ED4F3869561
S11317E077956795B795F795E7959F5FC1F7FE2BBA
S11317F0880F911D9695879597F90895A1E21A2E61
S1131800AA1BBB1BFD010DC0AA1FBB1FEE1FFF1FA0
S1131810A217B307E407F50720F0A21BB30BE40BF0
S1131820F50B661F771F881F991F1A9469F7609537
S11318307095809590959B01AC01BD01CF010895F1
S1131840A0E0B0E0E6E2FCE00C94070FAE014B5FD1
S11318505F4FFA0161917191AF01809124019091E0
S113186025010E94660CE2E00C94230FAEE0B0E088
S1131870ECE3FCE00C94050F0D891E898F89988D8B
S113188026E02C831A83098397FF02C080E090E846
S113189001979E838D83AE01455E5F4F698D7A8D7E
S11318A0CE0101960E94660C4D815E8157FD0AC0EF
S11318B02F813885421753070CF49A01F801E20F7F
S11318C0F31F10822E96E4E00C94210FABE0B0E0FD
S11318D0ECE6FCE00C94F70E6C017B018A01FC0140
S11318E017821682838181FFCCC1CE0101963C010F
S11318F0F6019381F70193FD859193FF81917F0117
S1131900882309F4BAC1853239F493FD859193FF94
S113191081917F01853229F4B60190E00E945D0E29
S1131920E7CF912C212C312CFFE1F315D8F08B3229
S113193079F038F4803279F08332A1F4232D2061D8
S11319401DC08D3261F0803369F4232D216016C0EF
S1131950832D8260382EE32DE4603E2E2AC0F32DC1
S1131960F8601DC037FC2DC020ED280F2A3040F050
S11319708E32B9F436FC81C1232D2064322E19C075
S113198036FE06C08AE0989E200D1124922E11C0C6
S1131990EAE02E9E200D1124222EF32DF0623F2E1C
S11319A008C08C3621F4832D8068382E02C0883616
S11319B041F4F70193FD859193FF81917F0181119A
S11319C0B3CF982F9F7D9554933028F40C5F1F4F0D
S11319D09FE399830DC0833631F0833771F08335EB
S11319E009F059C021C0F801808189830E5F1F4F1F
S11319F088248394912C530113C02801F2E04F0EE4
S1131A00511CF801A080B18036FE03C0692D70E03E
S1131A1002C06FEF7FEFC5010E94520E4C0182019C
S1131A20F32DFF773F2E16C0280122E0420E511CF1
S1131A30F801A080B18036FE03C0692D70E002C0B9
S1131A406FEF7FEFC5010E94470E4C01F32DF06844
S1131A503F2E820133FC1BC0822D90E0881699062C
S1131A60B0F4B60180E290E00E945D0E2A94F4CFB7
S1131A70F50137FC859137FE81915F01B60190E055
S1131A800E945D0E21102A9421E0821A910881148B
S1131A90910471F7E8C0843611F0893641F5F801F4
S1131AA037FE07C060817181828193810C5F1F4F73
S1131AB008C060817181072E000C880B990B0E5FA2
S1131AC01F4FF32DFF763F2E97FF09C09095809509
S1131AD0709561957F4F8F4F9F4FF0683F2E2AE09E
S1131AE030E0A3010E94990E882E861845C08537E0
S1131AF031F4232D2F7EB22E2AE030E025C0932D21
S1131B00997FB92E8F36C1F018F4883579F0B5C0B5
S1131B10803719F0883721F0B0C0E92FE061BE2E7C
S1131B20B4FE0DC0FB2DF460BF2E09C034FE0AC004
S1131B30292F2660B22E06C028E030E005C020E13F
S1131B4030E002C020E132E0F801B7FE07C0608156
S1131B507181828193810C5F1F4F06C06081718106
S1131B6080E090E00E5F1F4FA3010E94990E882E23
S1131B708618FB2DFF773F2E36FE0DC0232D2E7FBA
S1131B80A22E891458F434FE0BC032FC09C0832DF4
S1131B908E7EA82E05C0B82CA32C03C0B82C01C07F
S1131BA0B92CA4FE0FC0FE01E80DF11D8081803325
S1131BB021F49A2D997EA92E09C0A2FE06C0B394E1
S1131BC0B39404C08A2D867809F0B394A3FC11C0A1
S1131BD0A0FE06C0B21488F4280C922C9B180EC0E8
S1131BE0B21460F4B60180E290E00E945D0EB394FA
S1131BF0F7CFB21418F42B1802C0982C212CA4FE91
S1131C0010C0B60180E390E00E945D0EA2FE17C0F2
S1131C10A1FC03C088E790E002C088E590E0B6012B
S1131C200CC08A2D867859F0A1FE02C08BE201C057
S1131C3080E2A7FC8DE2B60190E00E945D0E89145B
S1131C4038F4B60180E390E00E945D0E9A94F7CFD9
S1131C508A94F301E80DF11D8081B60190E00E94A1
S1131C605D0E8110F5CF222009F442CEB60180E248
S1131C7090E00E945D0E2A94F6CFF601868197814A
S1131C8002C08FEF9FEF2B96E2E10C94130FFC013F
S1131C900590615070400110D8F7809590958E0F93
S1131CA09F1F0895FC016150704001900110D8F706
S1131CB0809590958E0F9F1F08950F931F93CF9338
S1131CC0DF93FB01238121FD03C08FEF9FEF2CC025
S1131CD022FF16C04681578124813581421753075C
S1131CE044F4A081B1819D012F5F3F4F3183208354
S1131CF08C93268137812F5F3F4F3783268314C00F
S1131D008B01EC01FB010084F185E02D0995892B01
S1131D10E1F6D80116968D919C9117970196179626
S1131D209C938E931697CE01DF91CF911F910F91C3
S1131D300895FA01AA27283051F1203181F1E8945D
S1131D406F936E7F6E5F7F4F8F4F9F4FAF4FB1E0AA
S1131D503ED0B4E03CD0670F781F891F9A1FA11DA5
S1131D60680F791F8A1F911DA11D6A0F711D811DA6
S1131D70911DA11D20D009F468943F912AE0269F6B
S1131D8011243019305D3193DEF6CF010895462FCA
S1131D904770405D4193B3E00FD0C9F7F6CF462FAB
S1131DA04F70405D4A3318F0495D31FD4052419314
S1131DB002D0A9F7EACFB4E0A695979587957795D1
S1131DC06795BA95C9F700976105710508959B0158
S1131DD0AC010A2E06945795479537952795BA95E1
S1131DE0C9F7620F731F841F951FA01D08952F92BA
S1131DF03F924F925F926F927F928F929F92AF9297
S1131E00BF92CF92DF92EF92FF920F931F93CF93E3
S1131E10DF93CDB7DEB7CA1BDB0B0FB6F894DEBF7A
S1131E200FBECDBF09942A88398848885F846E84A0
S1131E307D848C849B84AA84B984C884DF80EE80EA
S1131E40FD800C811B81AA81B981CE0FD11D0FB6F3
S1131E50F894DEBF0FBECDBFED010895F894FFCF17
S1131E600000000200000000EB0700000000324602
S1131E707265713A2025730025642E253032640082
S9030000FC
