:1000000019C020C01FC01EC01DC01CC01BC01AC00C
:1000100019C018C017C016C015C014C013C012C034
:1000200011C010C00FC00EC00DC00CC00BC00AC064
:1000300009C008C011241FBECFEFD4E0DEBFCDBF82
:10004000FEDD7BCFDDCFCF93DF93CDB7DEB7A097BB
:100050000FB6F894DEBF0FBECDBF88E290E028E275
:1000600030E0F90120812064FC01208380E090E0F1
:10007000A0E8BFE389839A83AB83BC832BEA3AEA87
:100080004AEA5EE369817A818B819C81F3DEDC013F
:10009000CB018D839E83AF83B88720E030E040E8BA
:1000A0005EE369817A818B819C81E4DEDC01CB0196
:1000B00089879A87AB87BC8720E030E040E85FE320
:1000C0006D817E818F819885C4DD88231CF481E059
:1000D0008D87A7C020E03FEF4FE757E469857A8519
:1000E0008B859C85C3DE18160CF074C020E030E0D0
:1000F0004AE754E469817A818B819C81AEDDDC0121
:10010000CB018E879F87A88BB98B20E030E04AE730
:1001100053E46E857F8588899989ACDEDC01CB014B
:100120008A8B9B8BAC8BBD8B20E030E040E85FE39B
:100130006A897B898C899D898CDD88232CF481E0F8
:1001400090E09F8B8E8B3BC020E03FEF4FE757E462
:100150006A897B898C899D8989DE18163CF520E0A7
:1001600030E040E251E46E857F858889998982DE9E
:10017000DC01CB01BC01CD01D8DDDC01CB019F8BC3
:100180008E8B0FC089E190E0998F888F888D998D33
:100190000197F1F7998F888F8E899F8901979F8B9F
:1001A0008E8B8E899F89892B69F73BC06A897B89F1
:1001B0008C899D89BADDDC01CB019F8B8E8B8E896A
:1001C0009F899B8F8A8F8A8D9B8D0197F1F79B8FDB
:1001D0008A8F27C020E030E04FE753E46D817E81B5
:1001E0008F81988543DE1816A4F469857A858B85FE
:1001F0009C859BDDDC01CB019D8F8C8F8C8D9D8D33
:100200009F8F8E8F8E8D9F8D0197F1F79F8F8E8F91
:100210000EC06D817E818F81988587DDDC01CB01E9
:100220008D878D8588A388A18A95F1F788A388E2B8
:1002300090E028E230E0F90120812F7BFC0120834F
:100240000000A0960FB6F894DEBF0FBECDBFDF91C1
:10025000CF910895CF93DF9300D01F92CDB7DEB733
:100260008A836B838B81882351F088E290E028E2B7
:1002700030E0F90120812061FC01208309C088E27F
:1002800090E028E230E0F90120812F7EFC012083FC
:1002900088E290E028E230E0F90120812F7DFC0126
:1002A000208387E290E027E230E0F90120812F608F
:1002B000FC01208388E290E0FC018081807F8983BB
:1002C00088E290E02A8122952F70322F2981232BFA
:1002D000FC012083B8DE88E290E02A81322F3F7053
:1002E0002981232BFC012083AEDE88E290E0298166
:1002F0002F60FC01208300000F900F900F90DF9182
:10030000CF9108950F931F93CF93DF93CDB7DEB7AF
:10031000C256D1090FB6F894DEBF0FBECDBF9E0105
:100320002E593F4FF9018083CE018E599F4FFC011A
:100330008081882351F088E290E028E230E0F901E2
:1003400020812061FC01208309C088E290E028E23E
:1003500030E0F90120812F7EFC01208388E290E0CB
:1003600028E230E0F90120812062FC01208387E24D
:1003700090E027E230E0F9012081207FFC0120831A
:1003800088E290E028E230E0F90120812064FC015D
:10039000208380E090E0A0E8BFE38A839B83AC8366
:1003A000BD838E010A5B1F4F2BEA3AEA4AEA5EE3FD
:1003B0006A817B818C819D815DDDDC01CB01F8014F
:1003C00080839183A283B3838E01065B1F4F20E05D
:1003D00030E040E85EE36A817B818C819D814ADD6B
:1003E000DC01CB01F80180839183A283B383CE012A
:1003F0008A5B9F4F20E030E040E85FE3FC016081D2
:1004000071818281938125DC88233CF4CE01825B5B
:100410009F4F21E0FC01208321C1CE01865B9F4FCD
:1004200020E03FEF4FE757E4FC016081718182815A
:1004300093811CDD18160CF0C6C020E030E04AE7BE
:1004400054E46A817B818C819D8107DCDC01CB01D6
:100450009E01215B3F4FF90180839183A283B38387
:100460008E010D5A1F4FCE01815B9F4F20E030E07F
:100470004AE753E4FC016081718182819381FADC57
:10048000DC01CB01F80180839183A283B383CE0189
:100490008D5A9F4F20E030E040E85FE3FC0160812F
:1004A000718182819381D5DB88234CF4CE01895AF6
:1004B0009F4F21E030E0FC013183208369C0CE01F1
:1004C0008D5A9F4F20E03FEF4FE757E4FC016081DA
:1004D000718182819381CADC18160CF048C0CE016C
:1004E000815B9F4F20E030E040E251E4FC016081FD
:1004F000718182819381BEDCDC01CB018E01095ABE
:100500001F4FBC01CD0111DCDC01CB01F80191834F
:10051000808324C0CE01875A9F4F29E130E0FC013F
:1005200031832083CE01875A9F4FFC0180819181C6
:100530000197F1F79E01275A3F4FF901918380837C
:10054000CE01895A9F4F9E01295A3F4FF9012081C0
:10055000318121503109FC0131832083CE01895A38
:100560009F4FFC0180819181892BA1F677C08E017C
:10057000095A1F4FCE018D5A9F4FFC016081718136
:1005800082819381D2DBDC01CB01F80191838083EE
:10059000CE01855A9F4F9E01295A3F4FF901208174
:1005A0003181FC0131832083CE01855A9F4FFC01AC
:1005B000808191810197F1F79E01255A3F4FF90102
:1005C000918380834BC0CE018A5B9F4F20E030E057
:1005D0004FE753E4FC01608171818281938146DCA5
:1005E000181664F58E01035A1F4FCE01865B9F4F8C
:1005F000FC01608171818281938197DBDC01CB01F9
:10060000F80191838083CE01815A9F4F9E01235A26
:100610003F4FF90120813181FC0131832083CE01DC
:10062000815A9F4FFC01808191810197F1F79E01D2
:10063000215A3F4FF9019183808327C08E01025BCD
:100640001F4FCE018A5B9F4FFC01608171818281C7
:1006500093816BDBDC01CB01F8018083CE018F59E4
:100660009F4F9E01225B3F4FF9012081FC012083B7
:10067000CE018F599F4FFC018081282F2A95F1F7D9
:10068000CE018F599F4FFC01208386E290E0FC0150
:1006900080818295807F898388E290E028E230E043
:1006A000F90120812F7BFC01208380E090E0A0E80D
:1006B000BFE38E839F83A887B9872BEA3AEA4AEA89
:1006C0005EE36E817F8188859985D4DBDC01CB0177
:1006D0008AA79BA7ACA7BDA720E030E040E85EE377
:1006E0006E817F8188859985C5DBDC01CB018EA772
:1006F0009FA7A8ABB9AB20E030E040E85FE36AA574
:100700007BA58CA59DA5A5DA88231CF481E08AAB86
:10071000C5C020E03FEF4FE757E46EA57FA588A94D
:1007200099A9A4DB18160CF07EC020E030E04AE75F
:1007300054E46E817F81888599858FDADC01CB0155
:100740008BAB9CABADABBEAB20E030E04AE753E4F3
:100750006BA97CA98DA99EA98DDBDC01CB018FAB98
:1007600098AFA9AFBAAF20E030E040E85FE36FA9EF
:1007700078AD89AD9AAD6DDA88232CF481E090E0F4
:100780009CAF8BAF3BC020E03FEF4FE757E46FA932
:1007900078AD89AD9AAD6ADB18163CF520E030E003
:1007A00040E251E46BA97CA98DA99EA963DBDC0121
:1007B000CB01BC01CD01B9DADC01CB019CAF8BAF21
:1007C0000FC089E190E09EAF8DAF8DAD9EAD0197DA
:1007D000F1F79EAF8DAF8BAD9CAD01979CAF8BAF0A
:1007E0008BAD9CAD892B69F759C06FA978AD89ADE8
:1007F0009AAD9BDADC01CB019CAF8BAF2BAD3CAD4E
:10080000CE01CF96FC0131832083CE01CF96FC012F
:10081000808191810197F1F79E01215C3F4FF901A1
:10082000918380833BC020E030E04FE753E46AA52A
:100830007BA58CA59DA51ADB181644F58E010F5BD0
:100840001F4F6EA57FA588A999A96FDADC01CB019E
:10085000F80191838083CE018D5B9F4F9E012F5BBA
:100860003F4FF90120813181FC0131832083CE018A
:100870008D5B9F4FFC01808191810197F1F79E0173
:100880002D5B3F4FF901918380831BC06AA57BA537
:100890008CA59DA54ADADC01CB018AABCE018B5B2E
:1008A0009F4F2AA9FC012083CE018B5B9F4FFC0147
:1008B0008081282F2A95F1F7CE018B5B9F4FFC0199
:1008C000208388E290E028E230E0F9012081206472
:1008D000FC01208380E090E0A0E8BFE38A879B874B
:1008E000AC87BD872BEA3AEA4AEA5EE36A857B85F4
:1008F0008C859D85BFDADC01CB018E879F87A88B15
:10090000B98B20E030E040E85EE36A857B858C852A
:100910009D85B0DADC01CB018A8B9B8BAC8BBD8BC8
:1009200020E030E040E85FE36E857F858889998923
:1009300090D988231CF481E08E8BA7C020E03FEF84
:100940004FE757E46A897B898C899D898FDA18166D
:100950000CF074C020E030E04AE754E46A857B85FF
:100960008C859D857AD9DC01CB018F8B988FA98FDF
:10097000BA8F20E030E04AE753E46F89788D898DA3
:100980009A8D78DADC01CB018B8F9C8FAD8FBE8F77
:1009900020E030E040E85FE36B8D7C8D8D8D9E8D97
:1009A00058D988232CF481E090E098A38F8F3BC026
:1009B00020E03FEF4FE757E46B8D7C8D8D8D9E8D52
:1009C00055DA18163CF520E030E040E251E46F893A
:1009D000788D898D9A8D4EDADC01CB01BC01CD0179
:1009E000A4D9DC01CB0198A38F8F0FC089E190E0DF
:1009F0009AA389A389A19AA10197F1F79AA389A340
:100A00008F8D98A1019798A38F8F8F8D98A1892B97
:100A100069F73BC06B8D7C8D8D8D9E8D86D9DC01F9
:100A2000CB0198A38F8F8F8D98A19CA38BA38BA1B3
:100A30009CA10197F1F79CA38BA327C020E030E095
:100A40004FE753E46E857F85888999890FDA1816F8
:100A5000A4F46A897B898C899D8967D9DC01CB01E3
:100A60009EA38DA38DA19EA198A78FA38FA198A5CA
:100A70000197F1F798A78FA30EC06E857F858889AF
:100A8000998953D9DC01CB018E8B8E8989A789A5E1
:100A90008A95F1F789A786E290E0FC018081882F92
:100AA00090E08F709927982F8981892B898388E21C
:100AB00090E028E230E0F90120812F7BFC012083C7
:100AC0008981CE59DF4F0FB6F894DEBF0FBECDBF80
:100AD000DF91CF911F910F9108951F93CF93DF93D3
:100AE000CDB7DEB7A0970FB6F894DEBF0FBECDBF6F
:100AF00080E008DC182F812F8823D4F380E090E079
:100B0000A0E8B0E489839A83AB83BC832BEA3AEAFA
:100B10004AEA5EE369817A818B819C81ABD9DC01F1
:100B2000CB018D839E83AF83B88720E030E040E81F
:100B30005EE369817A818B819C819CD9DC01CB0148
:100B400089879A87AB87BC8720E030E040E85FE385
:100B50006D817E818F8198857CD888231CF481E00B
:100B60008D87A7C020E03FEF4FE757E469857A857E
:100B70008B859C857BD918160CF074C020E030E082
:100B80004AE754E469817A818B819C8166D8DC01D3
:100B9000CB018E879F87A88BB98B20E030E04AE796
:100BA00053E46E857F858889998964D9DC01CB01FE
:100BB0008A8B9B8BAC8BBD8B20E030E040E85FE301
:100BC0006A897B898C899D8944D888232CF481E0AB
:100BD00090E09F8B8E8B3BC020E03FEF4FE757E4C8
:100BE0006A897B898C899D8941D918163CF520E05A
:100BF00030E040E251E46E857F85888999893AD951
:100C0000DC01CB01BC01CD0190D8DC01CB019F8B75
:100C10008E8B0FC089E190E0998F888F888D998D98
:100C20000197F1F7998F888F8E899F8901979F8B04
:100C30008E8B8E899F89892B69F73BC06A897B8956
:100C40008C899D8972D8DC01CB019F8B8E8B8E891C
:100C50009F899B8F8A8F8A8D9B8D0197F1F79B8F40
:100C60008A8F27C020E030E04FE753E46D817E811A
:100C70008F819885FBD81816A4F469857A858B85B1
:100C80009C8553D8DC01CB019D8F8C8F8C8D9D8DE5
:100C90009F8F8E8F8E8D9F8D0197F1F79F8F8E8FF7
:100CA0000EC06D817E818F8198853FD8DC01CB019C
:100CB0008D878D8588A388A18A95F1F788A380E028
:100CC00021DBA0960FB6F894DEBF0FBECDBFDF913B
:100CD000CF911F9108951F93CF93DF931F92CDB7AC
:100CE000DEB789838981803410F410E401C010E0FC
:100CF00080E8810F06D000000F90DF91CF911F9107
:100D00000895CF93DF931F92CDB7DEB78983E5DED9
:100D100060E089819FDA00000F90DF91CF91089504
:100D2000CF93DF931F92CDB7DEB78983D6DE61E024
:100D3000898190DA00000F90DF91CF910895CF93D1
:100D4000DF9300D0CDB7DEB789836A838A81882399
:100D500021F489818058D5DF03C089818054D1DF97
:100D600000000F900F90DF91CF910895CF93DF9304
:100D7000CDB7DEB7B2DE882F90E0DF91CF91089536
:100D8000CF93DF93CDB7DEB781E0BBDF0000DF910B
:100D9000CF910895CF93DF93CDB7DEB782E0B1DF77
:100DA0000000DF91CF910895CF93DF9300D0CDB7AE
:100DB000DEB78A8392DE89838A818A3019F4898139
:100DC0008ADF03C061E08A8145DA00000F900F904E
:100DD000DF91CF9108951F93CF93DF9300D0CDB7CC
:100DE000DEB79A83898302C0812FDEDF89819A81F1
:100DF0009C012F5F3F4F3A832983FC01108111230F
:100E000099F700000F900F90DF91CF911F910895F7
:100E10001F93CF93DF9300D000D01F92CDB7DEB7E2
:100E20009D838C8302C0812FBFDF8C819D819C01BB
:100E30002F5F3F4F3D832C839A83898389819A81D9
:100E4000FC0184918B838B81182F112361F70000A3
:100E50000F900F900F900F900F90DF91CF911F91F7
:100E600008950F931F93CF93DF93CDB7DEB7C15A89
:100E7000D1090FB6F894DEBF0FBECDBF9E012F552E
:100E80003F4FF901808387E290E027E230E0F901EB
:100E900020812F67FC01208380E090E0AAE7B6E480
:100EA00089839A83AB83BC838E010B571F4F2BEA38
:100EB0003AEA4AEA5EE369817A818B819C81DAD7DA
:100EC000DC01CB01F80180839183A283B3838E017F
:100ED00007571F4F20E030E040E85EE369817A81E8
:100EE0008B819C81C7D7DC01CB01F8018083918382
:100EF000A283B383CE018B579F4F20E030E040E8C0
:100F00005FE3FC016081718182819381A2D6882395
:100F10003CF4CE0183579F4F21E0FC01208321C187
:100F2000CE0187579F4F20E03FEF4FE757E4FC018A
:100F3000608171818281938199D718160CF0C6C0A7
:100F400020E030E04AE754E469817A818B819C811A
:100F500084D6DC01CB019E0122573F4FF9018083EB
:100F60009183A283B3838E010E561F4FCE01825709
:100F70009F4F20E030E04AE753E4FC01608171813B
:100F80008281938177D7DC01CB01F8018083918343
:100F9000A283B383CE018E569F4F20E030E040E81D
:100FA0005FE3FC01608171818281938152D6882345
:100FB0004CF4CE018A569F4F21E030E0FC01318392
:100FC000208369C0CE018E569F4F20E03FEF4FE750
:100FD00057E4FC01608171818281938147D71816A3
:100FE0000CF048C0CE0182579F4F20E030E040E235
:100FF00051E4FC0160817181828193813BD7DC01E6
:10100000CB018E010A561F4FBC01CD018ED6DC01EB
:10101000CB01F8019183808324C0CE0188569F4F75
:1010200029E130E0FC0131832083CE0188569F4FB7
:10103000FC01808191810197F1F79E0128563F4F75
:10104000F90191838083CE018A569F4F9E012A56D3
:101050003F4FF9012081318121503109FC01318359
:101060002083CE018A569F4FFC0180819181892B7C
:10107000A1F677C08E010A561F4FCE018E569F4FA4
:10108000FC0160817181828193814FD6DC01CB01AB
:10109000F80191838083CE0186569F4F9E012A5688
:1010A0003F4FF90120813181FC0131832083CE0142
:1010B00086569F4FFC01808191810197F1F79E0137
:1010C00026563F4FF901918380834BC0CE018B5749
:1010D0009F4F20E030E04FE753E4FC0160817181D5
:1010E00082819381C3D6181664F58E0104561F4F72
:1010F000CE0187579F4FFC0160817181828193816E
:1011000014D6DC01CB01F80191838083CE01825695
:101110009F4F9E0124563F4FF90120813181FC01F0
:1011200031832083CE0182569F4FFC0180819181C3
:101130000197F1F79E0122563F4FF9019183808379
:1011400027C08E0103571F4FCE018B579F4FFC01C5
:101150006081718182819381E8D5DC01CB01F80146
:101160008083CE0180569F4F9E0123573F4FF90148
:101170002081FC012083CE0180569F4FFC0180819D
:10118000282F2A95F1F7CE0180569F4FFC0120832E
:1011900088E290E028E230E0F90120812260FC0141
:1011A000208388E290E028E230E0F901208121608C
:1011B000FC01208348D780E090E4ACE9B5E48D835E
:1011C0009E83AF83B8878E0107591F4F2BEA3AEAF7
:1011D0004AEA5EE36D817E818F8198854BD6DC0182
:1011E000CB01F80180839183A283B3838E010359DD
:1011F0001F4F20E030E040E85EE36D817E818F810B
:10120000988538D6DC01CB01F80180839183A283D5
:10121000B383CE0187599F4F20E030E040E85FE381
:10122000FC01608171818281938113D588233CF414
:10123000CE018F589F4F21E0FC01208321C1CE01B8
:1012400083599F4F20E03FEF4FE757E4FC01608157
:101250007181828193810AD618160CF0C6C020E0F5
:1012600030E04AE754E46D817E818F819885F5D422
:10127000DC01CB019E012E583F4FF9018083918301
:10128000A283B3838E010A581F4FCE018E589F4F01
:1012900020E030E04AE753E4FC0160817181828103
:1012A0009381E8D5DC01CB01F80180839183A2838F
:1012B000B383CE018A589F4F20E030E040E85FE3DF
:1012C000FC016081718182819381C3D488234CF4B5
:1012D000CE0186589F4F21E030E0FC01318320830E
:1012E00069C0CE018A589F4F20E03FEF4FE757E497
:1012F000FC016081718182819381B8D518160CF050
:1013000048C0CE018E589F4F20E030E040E251E4CB
:10131000FC016081718182819381ACD5DC01CB01BC
:101320008E0106581F4FBC01CD01FFD4DC01CB015B
:10133000F8019183808324C0CE0184589F4F29E116
:1013400030E0FC0131832083CE0184589F4FFC01A3
:10135000808191810197F1F79E0124583F4FF90157
:1013600091838083CE0186589F4F9E0126583F4F20
:10137000F9012081318121503109FC013183208321
:10138000CE0186589F4FFC0180819181892BA1F667
:1013900077C08E0106581F4FCE018A589F4FFC011F
:1013A0006081718182819381C0D4DC01CB01F8011D
:1013B00091838083CE0182589F4F9E0126583F4FD4
:1013C000F90120813181FC0131832083CE018258D3
:1013D0009F4FFC01808191810197F1F79E01225876
:1013E0003F4FF901918380834BC0CE0187599F4FB6
:1013F00020E030E04FE753E4FC016081718182819D
:10140000938134D5181664F58E0100581F4FCE0114
:1014100083599F4FFC01608171818281938185D4C2
:10142000DC01CB01F80191838083CE018E579F4F61
:101430009E0120583F4FF90120813181FC01318309
:101440002083CE018E579F4FFC01808191810197AF
:10145000F1F79E012E573F4FF9019183808327C0FA
:101460008E010F581F4FCE0187599F4FFC0160819D
:1014700071818281938159D4DC01CB01F801808391
:10148000CE018C579F4F9E012F583F4FF90120816D
:10149000FC012083CE018C579F4FFC018081282FB7
:1014A0002A95F1F7CE018C579F4FFC012083CBD5B5
:1014B00080E090E0A0E8B2E489879A87AB87BC8798
:1014C0008E01035B1F4F2BEA3AEA4AEA5EE3698525
:1014D0007A858B859C85CED4DC01CB01F801808395
:1014E0009183A283B3838E010F5A1F4F20E030E017
:1014F00040E85EE369857A858B859C85BBD4DC01F9
:10150000CB01F80180839183A283B383CE01835BF7
:101510009F4F20E030E040E85FE3FC016081718193
:101520008281938196D388233CF4CE018B5A9F4FBE
:1015300021E0FC01208321C1CE018F5A9F4F20E082
:101540003FEF4FE757E4FC01608171818281938115
:101550008DD418160CF0C6C020E030E04AE754E401
:1015600069857A858B859C8578D3DC01CB019E01CA
:101570002A5A3F4FF90180839183A283B3838E015E
:10158000065A1F4FCE018A5A9F4F20E030E04AE7AB
:1015900053E4FC0160817181828193816BD4DC0111
:1015A000CB01F80180839183A283B383CE01865A55
:1015B0009F4F20E030E040E85FE3FC0160817181F3
:1015C0008281938146D388234CF4CE01825A9F4F67
:1015D00021E030E0FC013183208369C0CE01865ACE
:1015E0009F4F20E03FEF4FE757E4FC01608171819E
:1015F000828193813BD418160CF048C0CE018A5AE0
:101600009F4F20E030E040E251E4FC0160817181B5
:10161000828193812FD4DC01CB018E01025A1F4FAE
:10162000BC01CD0182D3DC01CB01F8019183808321
:1016300024C0CE01805A9F4F29E130E0FC01318364
:101640002083CE01805A9F4FFC01808191810197B8
:10165000F1F79E01205A3F4FF90191838083CE011B
:10166000825A9F4F9E01225A3F4FF90120813181BA
:1016700021503109FC0131832083CE01825A9F4FD2
:10168000FC0180819181892BA1F677C08E01025ADD
:101690001F4FCE01865A9F4FFC016081718182816C
:1016A000938143D3DC01CB01F80191838083CE0188
:1016B0008E599F4F9E01225A3F4FF901208131815F
:1016C000FC0131832083CE018E599F4FFC01808124
:1016D00091810197F1F79E012E593F4FF9019183B6
:1016E00080834BC0CE01835B9F4F20E030E04FE70B
:1016F00053E4FC016081718182819381B7D3181614
:1017000064F58E010C591F4FCE018F5A9F4FFC017B
:10171000608171818281938108D3DC01CB01F80162
:1017200091838083CE018A599F4F9E012C593F4F50
:10173000F90120813181FC0131832083CE018A5956
:101740009F4FFC01808191810197F1F79E012A59F9
:101750003F4FF9019183808327C08E010B5A1F4FA1
:10176000CE01835B9F4FFC016081718182819381F7
:10177000DCD2DC01CB01F8018083CE0188599F4F78
:101780009E012B5A3F4FF9012081FC012083CE019D
:1017900088599F4FFC018081282F2A95F1F7CE01AF
:1017A00088599F4FFC0120834ED480E090E0A0E850
:1017B000B2E48D879E87AF87B88B2BEA3AEA4AEA74
:1017C0005EE36D857E858F85988954D3DC01CB01DE
:1017D00089AB9AABABABBCAB20E030E040E85EE35A
:1017E0006D857E858F85988945D3DC01CB018DABD6
:1017F0009EABAFABB8AF20E030E040E85FE369A953
:101800007AA98BA99CA925D288231CF481E089AFF1
:10181000FEC020E03FEF4FE757E46DA97EA98FA9F6
:1018200098AD24D318160CF0B7C020E030E04AE79A
:1018300054E46D857E858F8598890FD2DC01CB01BC
:101840008AAF9BAFACAFBDAF8E01025C1F4F20E0F3
:1018500030E04AE753E46AAD7BAD8CAD9DAD0AD371
:10186000DC01CB01F80180839183A283B383CE0195
:10187000CE9620E030E040E85FE3FC0160817181BA
:1018800082819381E6D188234CF4CE018E5B9F4FF9
:1018900021E030E0FC013183208363C0CE01CE968D
:1018A00020E03FEF4FE757E4FC01608171818281C6
:1018B0009381DCD218160CF044C020E030E040E206
:1018C00051E46AAD7BAD8CAD9DADD4D2DC01CB01D2
:1018D0008E010E5B1F4FBC01CD0127D2DC01CB0175
:1018E000F8019183808324C0CE018C5B9F4F29E156
:1018F00030E0FC0131832083CE018C5B9F4FFC01E3
:10190000808191810197F1F79E012C5B3F4FF90196
:1019100091838083CE018E5B9F4F9E012E5B3F4F54
:10192000F9012081318121503109FC01318320836B
:10193000CE018E5B9F4FFC0180819181892BA1F6A6
:1019400066C08E010E5B1F4FCE01CE96FC016081FA
:10195000718182819381E9D1DC01CB01F80191830E
:101960008083CE018A5B9F4F9E012E5B3F4FF90122
:1019700020813181FC0131832083CE018A5B9F4F1E
:10198000FC01808191810197F1F79E012A5B3F4F15
:10199000F901918380833BC020E030E04FE753E4BE
:1019A00069A97AA98BA99CA961D2181644F58E0160
:1019B000085B1F4F6DA97EA98FA998ADB6D1DC0138
:1019C000CB01F80191838083CE01865B9F4F9E01FE
:1019D000285B3F4FF90120813181FC013183208355
:1019E000CE01865B9F4FFC01808191810197F1F7C9
:1019F0009E01265B3F4FF901918380831BC069A93B
:101A00007AA98BA99CA991D1DC01CB0189AFCE0128
:101A1000845B9F4F29ADFC012083CE01845B9F4FE7
:101A2000FC018081282F2A95F1F7CE01845B9F4F1E
:101A3000FC01208388E290E028E230E0F901208177
:101A40002E7FFC012083FFD280E090E0A0E8B2E48A
:101A5000898B9A8BAB8BBC8B2BEA3AEA4AEA5EE322
:101A600069897A898B899C8905D2DC01CB018D8BB0
:101A70009E8BAF8BB88F20E030E040E85EE3698951
:101A80007A898B899C89F6D1DC01CB01898F9A8F69
:101A9000AB8FBC8F20E030E040E85FE36D897E894A
:101AA0008F89988DD6D088231CF481E08D8FA7C0B4
:101AB00020E03FEF4FE757E4698D7A8D8B8D9C8D49
:101AC000D5D118160CF074C020E030E04AE754E499
:101AD00069897A898B899C89C0D0DC01CB018E8F82
:101AE0009F8FA8A3B9A320E030E04AE753E46E8DAE
:101AF0007F8D88A199A1BED1DC01CB018AA39BA3D4
:101B0000ACA3BDA320E030E040E85FE36AA17BA185
:101B10008CA19DA19ED088232CF481E090E09FA30E
:101B20008EA33BC020E03FEF4FE757E46AA17BA1C3
:101B30008CA19DA19BD118163CF520E030E040E23D
:101B400051E46E8D7F8D88A199A194D1DC01CB01E8
:101B5000BC01CD01EAD0DC01CB019FA38EA30FC055
:101B600089E190E099A788A788A599A50197F1F741
:101B700099A788A78EA19FA101979FA38EA38EA14D
:101B80009FA1892B69F73BC06AA17BA18CA19DA174
:101B9000CCD0DC01CB019FA38EA38EA19FA19BA7DC
:101BA0008AA78AA59BA50197F1F79BA78AA727C0BB
:101BB00020E030E04FE753E46D897E898F89988D6E
:101BC00055D11816A4F4698D7A8D8B8D9C8DADD06E
:101BD000DC01CB019DA78CA78CA59DA59FA78EA7F7
:101BE0008EA59FA50197F1F79FA78EA70EC06D89BF
:101BF0007E898F89988D99D0DC01CB018D8F8D8D59
:101C000088AB88A98A95F1F788AB88E27AD888E012
:101C100078D8B6D886E075D8CE018F559F4FFC0195
:101C200080816FD80000CF55DF4F0FB6F894DEBF2C
:101C30000FBECDBFDF91CF911F910F910895CF932C
:101C4000DF93CDB7DEB782E00CD99AD881E4ACD867
:101C5000FFCF97D008F481E008950CD0CDC0C5D057
:101C600040F0BCD030F021F45F3F19F0AEC051110C
:101C7000F7C0B1C0D2D098F39923C9F35523B1F37B
:101C8000951B550BBB27AA2762177307840738F0EB
:101C90009F5F5F4F220F331F441FAA1FA9F333D04A
:101CA0000E2E3AF0E0E830D091505040E695001CFE
:101CB000CAF729D0FE2F27D0660F771F881FBB1FBA
:101CC000261737074807AB07B0E809F0BB0B802D94
:101CD000BF01FF2793585F4F2AF09E3F510568F0E0
:101CE00074C0BEC05F3FECF3983EDCF386957795F9
:101CF0006795B795F7959F5FC9F7880F911D9695E2
:101D0000879597F90895E1E0660F771F881FBB1F3D
:101D1000621773078407BA0720F0621B730B840BEA
:101D2000BA0BEE1F88F7E09508957FD088F09F5793
:101D300090F0B92F9927B751A0F0D1F0660F771F17
:101D4000881F991F1AF0BA95C9F712C0B13081F0F7
:101D500086D0B1E0089583C0672F782F8827B85FB9
:101D600039F0B93FCCF3869577956795B395D9F758
:101D70003EF490958095709561957F4F8F4F9F4F62
:101D80000895990F0008550FAA0BE0E8FEEF16160C
:101D90001706E807F907C0F012161306E407F5075F
:101DA00098F0621B730B840B950B39F40A2661F0D3
:101DB000232B242B252B21F408950A2609F4A14076
:101DC000A6958FEF811D811D089597F99F6780E883
:101DD00070E060E008959FEF80EC089500240A947D
:101DE0001616170618060906089500240A941216F6
:101DF0001306140605060895092E0394000C11F429
:101E0000882352F0BB0F40F4BF2B11F460FF04C0D5
:101E10006F5F7F4F8F4F9F4F089557FD9058440F2E
:101E2000551F59F05F3F71F04795880F97FB991F39
:101E300061F09F3F79F087950895121613061406F6
:101E4000551FF2CF4695F1DF08C016161706180683
:101E5000991FF1CF86957105610508940895E8945E
:101E6000BB2766277727CB0197F908958ADF08F407
:101E70008FEF08950BD0C0CFB1DF28F0B6DF18F098
:101E8000952309F0A2CFA7CF1124EACFC6DFA0F394
:101E9000959FD1F3950F50E0551F629FF001729FFF
:101EA000BB27F00DB11D639FAA27F00DB11DAA1F1E
:101EB000649F6627B00DA11D661F829F2227B00D6B
:101EC000A11D621F739FB00DA11D621F839FA00DF6
:101ED000611D221F749F3327A00D611D231F849F46
:101EE000600D211D822F762F6A2F11249F5750409D
:101EF0008AF0E1F088234AF0EE0FFF1FBB1F661F38
:101F0000771F881F91505040A9F79E3F510570F0F0
:101F10005CCFA6CF5F3FECF3983EDCF386957795D8
:101F20006795B795F795E7959F5FC1F7FE2B880FEB
:0E1F3000911D9695879597F90895F894FFCF27
:00000001FF
